{
  "_format": "hh-sol-artifact-1",
  "contractName": "decentrasns",
  "sourceName": "contracts/decentrasns.sol",
  "abi": [
    {
      "inputs": [],
      "stateMutability": "nonpayable",
      "type": "constructor"
    },
    {
      "anonymous": false,
      "inputs": [
        {
          "indexed": true,
          "internalType": "address",
          "name": "owner",
          "type": "address"
        },
        {
          "indexed": true,
          "internalType": "address",
          "name": "approved",
          "type": "address"
        },
        {
          "indexed": true,
          "internalType": "uint256",
          "name": "tokenId",
          "type": "uint256"
        }
      ],
      "name": "Approval",
      "type": "event"
    },
    {
      "anonymous": false,
      "inputs": [
        {
          "indexed": true,
          "internalType": "address",
          "name": "owner",
          "type": "address"
        },
        {
          "indexed": true,
          "internalType": "address",
          "name": "operator",
          "type": "address"
        },
        {
          "indexed": false,
          "internalType": "bool",
          "name": "approved",
          "type": "bool"
        }
      ],
      "name": "ApprovalForAll",
      "type": "event"
    },
    {
      "anonymous": false,
      "inputs": [
        {
          "indexed": false,
          "internalType": "uint256",
          "name": "postId",
          "type": "uint256"
        },
        {
          "indexed": false,
          "internalType": "bool",
          "name": "isLiked",
          "type": "bool"
        }
      ],
      "name": "LikePost",
      "type": "event"
    },
    {
      "anonymous": false,
      "inputs": [
        {
          "indexed": false,
          "internalType": "uint256",
          "name": "id",
          "type": "uint256"
        },
        {
          "indexed": false,
          "internalType": "string",
          "name": "text",
          "type": "string"
        },
        {
          "indexed": true,
          "internalType": "address",
          "name": "from",
          "type": "address"
        },
        {
          "indexed": false,
          "internalType": "uint256",
          "name": "timestamp",
          "type": "uint256"
        },
        {
          "indexed": false,
          "internalType": "uint256",
          "name": "likeCount",
          "type": "uint256"
        }
      ],
      "name": "NewPosted",
      "type": "event"
    },
    {
      "anonymous": false,
      "inputs": [
        {
          "indexed": true,
          "internalType": "address",
          "name": "from",
          "type": "address"
        },
        {
          "indexed": true,
          "internalType": "address",
          "name": "to",
          "type": "address"
        },
        {
          "indexed": true,
          "internalType": "uint256",
          "name": "tokenId",
          "type": "uint256"
        }
      ],
      "name": "Transfer",
      "type": "event"
    },
    {
      "inputs": [
        {
          "internalType": "address",
          "name": "to",
          "type": "address"
        },
        {
          "internalType": "uint256",
          "name": "tokenId",
          "type": "uint256"
        }
      ],
      "name": "approve",
      "outputs": [],
      "stateMutability": "nonpayable",
      "type": "function"
    },
    {
      "inputs": [
        {
          "internalType": "address",
          "name": "owner",
          "type": "address"
        }
      ],
      "name": "balanceOf",
      "outputs": [
        {
          "internalType": "uint256",
          "name": "",
          "type": "uint256"
        }
      ],
      "stateMutability": "view",
      "type": "function"
    },
    {
      "inputs": [
        {
          "internalType": "uint256",
          "name": "_postId",
          "type": "uint256"
        }
      ],
      "name": "changeLikePost",
      "outputs": [],
      "stateMutability": "nonpayable",
      "type": "function"
    },
    {
      "inputs": [],
      "name": "getAllPosts",
      "outputs": [
        {
          "components": [
            {
              "internalType": "uint256",
              "name": "id",
              "type": "uint256"
            },
            {
              "internalType": "string",
              "name": "text",
              "type": "string"
            },
            {
              "internalType": "address",
              "name": "from",
              "type": "address"
            },
            {
              "internalType": "uint256",
              "name": "timestamp",
              "type": "uint256"
            },
            {
              "internalType": "uint256",
              "name": "likeCount",
              "type": "uint256"
            }
          ],
          "internalType": "struct decentrasns.Post[]",
          "name": "_posts",
          "type": "tuple[]"
        }
      ],
      "stateMutability": "view",
      "type": "function"
    },
    {
      "inputs": [
        {
          "internalType": "uint256",
          "name": "tokenId",
          "type": "uint256"
        }
      ],
      "name": "getApproved",
      "outputs": [
        {
          "internalType": "address",
          "name": "",
          "type": "address"
        }
      ],
      "stateMutability": "view",
      "type": "function"
    },
    {
      "inputs": [
        {
          "internalType": "uint256",
          "name": "_postId",
          "type": "uint256"
        }
      ],
      "name": "getLikesPost",
      "outputs": [
        {
          "components": [
            {
              "internalType": "address",
              "name": "from",
              "type": "address"
            },
            {
              "internalType": "bool",
              "name": "isLiked",
              "type": "bool"
            }
          ],
          "internalType": "struct decentrasns.Like[]",
          "name": "_likes",
          "type": "tuple[]"
        }
      ],
      "stateMutability": "view",
      "type": "function"
    },
    {
      "inputs": [
        {
          "internalType": "address",
          "name": "owner",
          "type": "address"
        },
        {
          "internalType": "address",
          "name": "operator",
          "type": "address"
        }
      ],
      "name": "isApprovedForAll",
      "outputs": [
        {
          "internalType": "bool",
          "name": "",
          "type": "bool"
        }
      ],
      "stateMutability": "view",
      "type": "function"
    },
    {
      "inputs": [
        {
          "internalType": "uint256",
          "name": "",
          "type": "uint256"
        },
        {
          "internalType": "uint256",
          "name": "",
          "type": "uint256"
        }
      ],
      "name": "likes",
      "outputs": [
        {
          "internalType": "address",
          "name": "from",
          "type": "address"
        },
        {
          "internalType": "bool",
          "name": "isLiked",
          "type": "bool"
        }
      ],
      "stateMutability": "view",
      "type": "function"
    },
    {
      "inputs": [],
      "name": "name",
      "outputs": [
        {
          "internalType": "string",
          "name": "",
          "type": "string"
        }
      ],
      "stateMutability": "view",
      "type": "function"
    },
    {
      "inputs": [
        {
          "internalType": "uint256",
          "name": "tokenId",
          "type": "uint256"
        }
      ],
      "name": "ownerOf",
      "outputs": [
        {
          "internalType": "address",
          "name": "",
          "type": "address"
        }
      ],
      "stateMutability": "view",
      "type": "function"
    },
    {
      "inputs": [],
      "name": "postCount",
      "outputs": [
        {
          "internalType": "uint256",
          "name": "",
          "type": "uint256"
        }
      ],
      "stateMutability": "view",
      "type": "function"
    },
    {
      "inputs": [
        {
          "internalType": "uint256",
          "name": "",
          "type": "uint256"
        }
      ],
      "name": "posts",
      "outputs": [
        {
          "internalType": "uint256",
          "name": "id",
          "type": "uint256"
        },
        {
          "internalType": "string",
          "name": "text",
          "type": "string"
        },
        {
          "internalType": "address",
          "name": "from",
          "type": "address"
        },
        {
          "internalType": "uint256",
          "name": "timestamp",
          "type": "uint256"
        },
        {
          "internalType": "uint256",
          "name": "likeCount",
          "type": "uint256"
        }
      ],
      "stateMutability": "view",
      "type": "function"
    },
    {
      "inputs": [
        {
          "internalType": "address",
          "name": "from",
          "type": "address"
        },
        {
          "internalType": "address",
          "name": "to",
          "type": "address"
        },
        {
          "internalType": "uint256",
          "name": "tokenId",
          "type": "uint256"
        }
      ],
      "name": "safeTransferFrom",
      "outputs": [],
      "stateMutability": "nonpayable",
      "type": "function"
    },
    {
      "inputs": [
        {
          "internalType": "address",
          "name": "from",
          "type": "address"
        },
        {
          "internalType": "address",
          "name": "to",
          "type": "address"
        },
        {
          "internalType": "uint256",
          "name": "tokenId",
          "type": "uint256"
        },
        {
          "internalType": "bytes",
          "name": "data",
          "type": "bytes"
        }
      ],
      "name": "safeTransferFrom",
      "outputs": [],
      "stateMutability": "nonpayable",
      "type": "function"
    },
    {
      "inputs": [
        {
          "internalType": "address",
          "name": "operator",
          "type": "address"
        },
        {
          "internalType": "bool",
          "name": "approved",
          "type": "bool"
        }
      ],
      "name": "setApprovalForAll",
      "outputs": [],
      "stateMutability": "nonpayable",
      "type": "function"
    },
    {
      "inputs": [
        {
          "internalType": "bytes4",
          "name": "interfaceId",
          "type": "bytes4"
        }
      ],
      "name": "supportsInterface",
      "outputs": [
        {
          "internalType": "bool",
          "name": "",
          "type": "bool"
        }
      ],
      "stateMutability": "view",
      "type": "function"
    },
    {
      "inputs": [],
      "name": "symbol",
      "outputs": [
        {
          "internalType": "string",
          "name": "",
          "type": "string"
        }
      ],
      "stateMutability": "view",
      "type": "function"
    },
    {
      "inputs": [
        {
          "internalType": "uint256",
          "name": "tokenId",
          "type": "uint256"
        }
      ],
      "name": "tokenURI",
      "outputs": [
        {
          "internalType": "string",
          "name": "",
          "type": "string"
        }
      ],
      "stateMutability": "view",
      "type": "function"
    },
    {
      "inputs": [
        {
          "internalType": "address",
          "name": "from",
          "type": "address"
        },
        {
          "internalType": "address",
          "name": "to",
          "type": "address"
        },
        {
          "internalType": "uint256",
          "name": "tokenId",
          "type": "uint256"
        }
      ],
      "name": "transferFrom",
      "outputs": [],
      "stateMutability": "nonpayable",
      "type": "function"
    },
    {
      "inputs": [
        {
          "internalType": "string",
          "name": "_text",
          "type": "string"
        }
      ],
      "name": "uploadPost",
      "outputs": [],
      "stateMutability": "nonpayable",
      "type": "function"
    }
  ],
  "bytecode": "0x60806040523480156200001157600080fd5b506040518060400160405280600b81526020017f646563656e747261736e730000000000000000000000000000000000000000008152506040518060400160405280600481526020017f44534e530000000000000000000000000000000000000000000000000000000081525081600090816200008f919062000324565b508060019081620000a1919062000324565b5050506200040b565b600081519050919050565b7f4e487b7100000000000000000000000000000000000000000000000000000000600052604160045260246000fd5b7f4e487b7100000000000000000000000000000000000000000000000000000000600052602260045260246000fd5b600060028204905060018216806200012c57607f821691505b602082108103620001425762000141620000e4565b5b50919050565b60008190508160005260206000209050919050565b60006020601f8301049050919050565b600082821b905092915050565b600060088302620001ac7fffffffffffffffffffffffffffffffffffffffffffffffffffffffffffffffff826200016d565b620001b886836200016d565b95508019841693508086168417925050509392505050565b6000819050919050565b6000819050919050565b600062000205620001ff620001f984620001d0565b620001da565b620001d0565b9050919050565b6000819050919050565b6200022183620001e4565b6200023962000230826200020c565b8484546200017a565b825550505050565b600090565b6200025062000241565b6200025d81848462000216565b505050565b5b8181101562000285576200027960008262000246565b60018101905062000263565b5050565b601f821115620002d4576200029e8162000148565b620002a9846200015d565b81016020851015620002b9578190505b620002d1620002c8856200015d565b83018262000262565b50505b505050565b600082821c905092915050565b6000620002f960001984600802620002d9565b1980831691505092915050565b6000620003148383620002e6565b9150826002028217905092915050565b6200032f82620000aa565b67ffffffffffffffff8111156200034b576200034a620000b5565b5b62000357825462000113565b6200036482828562000289565b600060209050601f8311600181146200039c576000841562000387578287015190505b62000393858262000306565b86555062000403565b601f198416620003ac8662000148565b60005b82811015620003d657848901518255600182019150602085019450602081019050620003af565b86831015620003f65784890151620003f2601f891682620002e6565b8355505b6001600288020188555050505b505050505050565b613944806200041b6000396000f3fe608060405234801561001057600080fd5b506004361061012c5760003560e01c806342842e0e116100ad578063a22cb46511610071578063a22cb4651461036e578063b88d4fde1461038a578063bdd05adb146103a6578063c87b56dd146103c2578063e985e9c5146103f25761012c565b806342842e0e146102a45780636352211e146102c057806370a08231146102f057806395d89b41146103205780639672eb6a1461033e5761012c565b806312acb342116100f457806312acb342146101ff57806317906c2e1461021b57806323b872dd14610239578063263457f21461025557806330561100146102865761012c565b806301ffc9a71461013157806306fdde0314610161578063081812fc1461017f578063095ea7b3146101af5780630b1e7f83146101cb575b600080fd5b61014b600480360381019061014691906123c9565b610422565b6040516101589190612411565b60405180910390f35b610169610504565b60405161017691906124bc565b60405180910390f35b61019960048036038101906101949190612514565b610596565b6040516101a69190612582565b60405180910390f35b6101c960048036038101906101c491906125c9565b6105dc565b005b6101e560048036038101906101e09190612514565b6106f3565b6040516101f6959493929190612618565b60405180910390f35b61021960048036038101906102149190612514565b6107d1565b005b610223610b7d565b6040516102309190612672565b60405180910390f35b610253600480360381019061024e919061268d565b610b83565b005b61026f600480360381019061026a91906126e0565b610be3565b60405161027d929190612720565b60405180910390f35b61028e610c4d565b60405161029b91906128e9565b60405180910390f35b6102be60048036038101906102b9919061268d565b610e18565b005b6102da60048036038101906102d59190612514565b610e38565b6040516102e79190612582565b60405180910390f35b61030a6004803603810190610305919061290b565b610ebe565b6040516103179190612672565b60405180910390f35b610328610f75565b60405161033591906124bc565b60405180910390f35b61035860048036038101906103539190612514565b611007565b6040516103659190612a25565b60405180910390f35b61038860048036038101906103839190612a73565b61127f565b005b6103a4600480360381019061039f9190612be8565b611295565b005b6103c060048036038101906103bb9190612d0c565b6112f7565b005b6103dc60048036038101906103d79190612514565b611480565b6040516103e991906124bc565b60405180910390f35b61040c60048036038101906104079190612d55565b611592565b6040516104199190612411565b60405180910390f35b60007f80ac58cd000000000000000000000000000000000000000000000000000000007bffffffffffffffffffffffffffffffffffffffffffffffffffffffff1916827bffffffffffffffffffffffffffffffffffffffffffffffffffffffff191614806104ed57507f5b5e139f000000000000000000000000000000000000000000000000000000007bffffffffffffffffffffffffffffffffffffffffffffffffffffffff1916827bffffffffffffffffffffffffffffffffffffffffffffffffffffffff1916145b806104fd57506104fc82611626565b5b9050919050565b60606000805461051390612dc4565b80601f016020809104026020016040519081016040528092919081815260200182805461053f90612dc4565b801561058c5780601f106105615761010080835404028352916020019161058c565b820191906000526020600020905b81548152906001019060200180831161056f57829003601f168201915b5050505050905090565b60006105a182611690565b6004600083815260200190815260200160002060009054906101000a900473ffffffffffffffffffffffffffffffffffffffff169050919050565b60006105e782610e38565b90508073ffffffffffffffffffffffffffffffffffffffff168373ffffffffffffffffffffffffffffffffffffffff1603610657576040517f08c379a000000000000000000000000000000000000000000000000000000000815260040161064e90612e67565b60405180910390fd5b8073ffffffffffffffffffffffffffffffffffffffff166106766116db565b73ffffffffffffffffffffffffffffffffffffffff1614806106a557506106a48161069f6116db565b611592565b5b6106e4576040517f08c379a00000000000000000000000000000000000000000000000000000000081526004016106db90612ef9565b60405180910390fd5b6106ee83836116e3565b505050565b600860205280600052604060002060009150905080600001549080600101805461071c90612dc4565b80601f016020809104026020016040519081016040528092919081815260200182805461074890612dc4565b80156107955780601f1061076a57610100808354040283529160200191610795565b820191906000526020600020905b81548152906001019060200180831161077857829003601f168201915b5050505050908060020160009054906101000a900473ffffffffffffffffffffffffffffffffffffffff16908060030154908060040154905085565b6000805b6009600084815260200190815260200160002080549050811015610a3d573373ffffffffffffffffffffffffffffffffffffffff1660096000858152602001908152602001600020828154811061082f5761082e612f19565b5b9060005260206000200160000160009054906101000a900473ffffffffffffffffffffffffffffffffffffffff1673ffffffffffffffffffffffffffffffffffffffff1603610a2a57600191506009600084815260200190815260200160002081815481106108a1576108a0612f19565b5b9060005260206000200160000160149054906101000a900460ff16156109775760006009600085815260200190815260200160002082815481106108e8576108e7612f19565b5b9060005260206000200160000160146101000a81548160ff0219169083151502179055507f2b5504beaa24a6c5eb8f61b11f59a4dd99f1ff07d2e753fe2e74cc0e59ff5d0183600060405161093e929190612f48565b60405180910390a160086000848152602001908152602001600020600401600081548092919061096d90612fa0565b9190505550610a29565b600160096000858152602001908152602001600020828154811061099e5761099d612f19565b5b9060005260206000200160000160146101000a81548160ff0219169083151502179055507f2b5504beaa24a6c5eb8f61b11f59a4dd99f1ff07d2e753fe2e74cc0e59ff5d018360016040516109f4929190612f48565b60405180910390a1600860008481526020019081526020016000206004016000815480929190610a2390612fc9565b91905055505b5b8080610a3590612fc9565b9150506107d5565b5080610b7957600860008381526020019081526020016000206004016000815480929190610a6a90612fc9565b91905055506009600083815260200190815260200160002060405180604001604052803373ffffffffffffffffffffffffffffffffffffffff168152602001600115158152509080600181540180825580915050600190039060005260206000200160009091909190915060008201518160000160006101000a81548173ffffffffffffffffffffffffffffffffffffffff021916908373ffffffffffffffffffffffffffffffffffffffff16021790555060208201518160000160146101000a81548160ff02191690831515021790555050507f2b5504beaa24a6c5eb8f61b11f59a4dd99f1ff07d2e753fe2e74cc0e59ff5d01826001604051610b70929190612f48565b60405180910390a15b5050565b60075481565b610b94610b8e6116db565b8261179c565b610bd3576040517f08c379a0000000000000000000000000000000000000000000000000000000008152600401610bca90613083565b60405180910390fd5b610bde838383611831565b505050565b60096020528160005260406000208181548110610bff57600080fd5b90600052602060002001600091509150508060000160009054906101000a900473ffffffffffffffffffffffffffffffffffffffff16908060000160149054906101000a900460ff16905082565b606060075467ffffffffffffffff811115610c6b57610c6a612abd565b5b604051908082528060200260200182016040528015610ca457816020015b610c916122e6565b815260200190600190039081610c895790505b50905060005b8151811015610e145760086000600183610cc491906130a3565b81526020019081526020016000206040518060a001604052908160008201548152602001600182018054610cf790612dc4565b80601f0160208091040260200160405190810160405280929190818152602001828054610d2390612dc4565b8015610d705780601f10610d4557610100808354040283529160200191610d70565b820191906000526020600020905b815481529060010190602001808311610d5357829003601f168201915b505050505081526020016002820160009054906101000a900473ffffffffffffffffffffffffffffffffffffffff1673ffffffffffffffffffffffffffffffffffffffff1673ffffffffffffffffffffffffffffffffffffffff16815260200160038201548152602001600482015481525050828281518110610df657610df5612f19565b5b60200260200101819052508080610e0c90612fc9565b915050610caa565b5090565b610e3383838360405180602001604052806000815250611295565b505050565b600080610e4483611b2a565b9050600073ffffffffffffffffffffffffffffffffffffffff168173ffffffffffffffffffffffffffffffffffffffff1603610eb5576040517f08c379a0000000000000000000000000000000000000000000000000000000008152600401610eac90613123565b60405180910390fd5b80915050919050565b60008073ffffffffffffffffffffffffffffffffffffffff168273ffffffffffffffffffffffffffffffffffffffff1603610f2e576040517f08c379a0000000000000000000000000000000000000000000000000000000008152600401610f25906131b5565b60405180910390fd5b600360008373ffffffffffffffffffffffffffffffffffffffff1673ffffffffffffffffffffffffffffffffffffffff168152602001908152602001600020549050919050565b606060018054610f8490612dc4565b80601f0160208091040260200160405190810160405280929190818152602001828054610fb090612dc4565b8015610ffd5780601f10610fd257610100808354040283529160200191610ffd565b820191906000526020600020905b815481529060010190602001808311610fe057829003601f168201915b5050505050905090565b60606000600960008481526020019081526020016000208054905067ffffffffffffffff81111561103b5761103a612abd565b5b60405190808252806020026020018201604052801561107457816020015b61106161232b565b8152602001906001900390816110595790505b5090506000805b60096000868152602001908152602001600020805490508110156111c9576009600086815260200190815260200160002081815481106110be576110bd612f19565b5b9060005260206000200160000160149054906101000a900460ff16156111b65760096000868152602001908152602001600020818154811061110357611102612f19565b5b906000526020600020016040518060400160405290816000820160009054906101000a900473ffffffffffffffffffffffffffffffffffffffff1673ffffffffffffffffffffffffffffffffffffffff1673ffffffffffffffffffffffffffffffffffffffff1681526020016000820160149054906101000a900460ff16151515158152505083838151811061119c5761119b612f19565b5b602002602001018190525081806111b290612fc9565b9250505b80806111c190612fc9565b91505061107b565b508067ffffffffffffffff8111156111e4576111e3612abd565b5b60405190808252806020026020018201604052801561121d57816020015b61120a61232b565b8152602001906001900390816112025790505b50925060005b818110156112775782818151811061123e5761123d612f19565b5b602002602001015184828151811061125957611258612f19565b5b6020026020010181905250808061126f90612fc9565b915050611223565b505050919050565b61129161128a6116db565b8383611b67565b5050565b6112a66112a06116db565b8361179c565b6112e5576040517f08c379a00000000000000000000000000000000000000000000000000000000081526004016112dc90613083565b60405180910390fd5b6112f184848484611cd3565b50505050565b600081511161133b576040517f08c379a000000000000000000000000000000000000000000000000000000000815260040161133290613221565b60405180910390fd5b6007600081548092919061134e90612fc9565b91905055506040518060a0016040528060075481526020018281526020013373ffffffffffffffffffffffffffffffffffffffff16815260200142815260200160008152506008600060075481526020019081526020016000206000820151816000015560208201518160010190816113c791906133ed565b5060408201518160020160006101000a81548173ffffffffffffffffffffffffffffffffffffffff021916908373ffffffffffffffffffffffffffffffffffffffff16021790555060608201518160030155608082015181600401559050503373ffffffffffffffffffffffffffffffffffffffff167f6d7f72f9a0d79569f4a4f70e640e7de3583d788a22c5866e754d7e51a6aa18e56007548342600060405161147594939291906134fa565b60405180910390a250565b606061148b82611690565b60006006600084815260200190815260200160002080546114ab90612dc4565b80601f01602080910402602001604051908101604052809291908181526020018280546114d790612dc4565b80156115245780601f106114f957610100808354040283529160200191611524565b820191906000526020600020905b81548152906001019060200180831161150757829003601f168201915b505050505090506000611535611d2f565b9050600081510361154a57819250505061158d565b60008251111561157f578082604051602001611567929190613582565b6040516020818303038152906040529250505061158d565b61158884611d46565b925050505b919050565b6000600560008473ffffffffffffffffffffffffffffffffffffffff1673ffffffffffffffffffffffffffffffffffffffff16815260200190815260200160002060008373ffffffffffffffffffffffffffffffffffffffff1673ffffffffffffffffffffffffffffffffffffffff16815260200190815260200160002060009054906101000a900460ff16905092915050565b60007f01ffc9a7000000000000000000000000000000000000000000000000000000007bffffffffffffffffffffffffffffffffffffffffffffffffffffffff1916827bffffffffffffffffffffffffffffffffffffffffffffffffffffffff1916149050919050565b61169981611dae565b6116d8576040517f08c379a00000000000000000000000000000000000000000000000000000000081526004016116cf90613123565b60405180910390fd5b50565b600033905090565b816004600083815260200190815260200160002060006101000a81548173ffffffffffffffffffffffffffffffffffffffff021916908373ffffffffffffffffffffffffffffffffffffffff160217905550808273ffffffffffffffffffffffffffffffffffffffff1661175683610e38565b73ffffffffffffffffffffffffffffffffffffffff167f8c5be1e5ebec7d5bd14f71427d1e84f3dd0314c0f7b2291e5b200ac8c7c3b92560405160405180910390a45050565b6000806117a883610e38565b90508073ffffffffffffffffffffffffffffffffffffffff168473ffffffffffffffffffffffffffffffffffffffff1614806117ea57506117e98185611592565b5b8061182857508373ffffffffffffffffffffffffffffffffffffffff1661181084610596565b73ffffffffffffffffffffffffffffffffffffffff16145b91505092915050565b8273ffffffffffffffffffffffffffffffffffffffff1661185182610e38565b73ffffffffffffffffffffffffffffffffffffffff16146118a7576040517f08c379a000000000000000000000000000000000000000000000000000000000815260040161189e90613618565b60405180910390fd5b600073ffffffffffffffffffffffffffffffffffffffff168273ffffffffffffffffffffffffffffffffffffffff1603611916576040517f08c379a000000000000000000000000000000000000000000000000000000000815260040161190d906136aa565b60405180910390fd5b6119238383836001611def565b8273ffffffffffffffffffffffffffffffffffffffff1661194382610e38565b73ffffffffffffffffffffffffffffffffffffffff1614611999576040517f08c379a000000000000000000000000000000000000000000000000000000000815260040161199090613618565b60405180910390fd5b6004600082815260200190815260200160002060006101000a81549073ffffffffffffffffffffffffffffffffffffffff02191690556001600360008573ffffffffffffffffffffffffffffffffffffffff1673ffffffffffffffffffffffffffffffffffffffff168152602001908152602001600020600082825403925050819055506001600360008473ffffffffffffffffffffffffffffffffffffffff1673ffffffffffffffffffffffffffffffffffffffff16815260200190815260200160002060008282540192505081905550816002600083815260200190815260200160002060006101000a81548173ffffffffffffffffffffffffffffffffffffffff021916908373ffffffffffffffffffffffffffffffffffffffff160217905550808273ffffffffffffffffffffffffffffffffffffffff168473ffffffffffffffffffffffffffffffffffffffff167fddf252ad1be2c89b69c2b068fc378daa952ba7f163c4a11628f55a4df523b3ef60405160405180910390a4611b258383836001611f15565b505050565b60006002600083815260200190815260200160002060009054906101000a900473ffffffffffffffffffffffffffffffffffffffff169050919050565b8173ffffffffffffffffffffffffffffffffffffffff168373ffffffffffffffffffffffffffffffffffffffff1603611bd5576040517f08c379a0000000000000000000000000000000000000000000000000000000008152600401611bcc90613716565b60405180910390fd5b80600560008573ffffffffffffffffffffffffffffffffffffffff1673ffffffffffffffffffffffffffffffffffffffff16815260200190815260200160002060008473ffffffffffffffffffffffffffffffffffffffff1673ffffffffffffffffffffffffffffffffffffffff16815260200190815260200160002060006101000a81548160ff0219169083151502179055508173ffffffffffffffffffffffffffffffffffffffff168373ffffffffffffffffffffffffffffffffffffffff167f17307eab39ab6107e8899845ad3d59bd9653f200f220920489ca2b5937696c3183604051611cc69190612411565b60405180910390a3505050565b611cde848484611831565b611cea84848484611f1b565b611d29576040517f08c379a0000000000000000000000000000000000000000000000000000000008152600401611d20906137a8565b60405180910390fd5b50505050565b606060405180602001604052806000815250905090565b6060611d5182611690565b6000611d5b611d2f565b90506000815111611d7b5760405180602001604052806000815250611da6565b80611d85846120a2565b604051602001611d96929190613582565b6040516020818303038152906040525b915050919050565b60008073ffffffffffffffffffffffffffffffffffffffff16611dd083611b2a565b73ffffffffffffffffffffffffffffffffffffffff1614159050919050565b6001811115611f0f57600073ffffffffffffffffffffffffffffffffffffffff168473ffffffffffffffffffffffffffffffffffffffff1614611e835780600360008673ffffffffffffffffffffffffffffffffffffffff1673ffffffffffffffffffffffffffffffffffffffff1681526020019081526020016000206000828254611e7b91906137c8565b925050819055505b600073ffffffffffffffffffffffffffffffffffffffff168373ffffffffffffffffffffffffffffffffffffffff1614611f0e5780600360008573ffffffffffffffffffffffffffffffffffffffff1673ffffffffffffffffffffffffffffffffffffffff1681526020019081526020016000206000828254611f0691906130a3565b925050819055505b5b50505050565b50505050565b6000611f3c8473ffffffffffffffffffffffffffffffffffffffff16612170565b15612095578373ffffffffffffffffffffffffffffffffffffffff1663150b7a02611f656116db565b8786866040518563ffffffff1660e01b8152600401611f879493929190613851565b6020604051808303816000875af1925050508015611fc357506040513d601f19601f82011682018060405250810190611fc091906138b2565b60015b612045573d8060008114611ff3576040519150601f19603f3d011682016040523d82523d6000602084013e611ff8565b606091505b50600081510361203d576040517f08c379a0000000000000000000000000000000000000000000000000000000008152600401612034906137a8565b60405180910390fd5b805181602001fd5b63150b7a0260e01b7bffffffffffffffffffffffffffffffffffffffffffffffffffffffff1916817bffffffffffffffffffffffffffffffffffffffffffffffffffffffff19161491505061209a565b600190505b949350505050565b6060600060016120b184612193565b01905060008167ffffffffffffffff8111156120d0576120cf612abd565b5b6040519080825280601f01601f1916602001820160405280156121025781602001600182028036833780820191505090505b509050600082602001820190505b600115612165578080600190039150507f3031323334353637383961626364656600000000000000000000000000000000600a86061a8153600a8581612159576121586138df565b5b04945060008503612110575b819350505050919050565b6000808273ffffffffffffffffffffffffffffffffffffffff163b119050919050565b600080600090507a184f03e93ff9f4daa797ed6e38ed64bf6a1f01000000000000000083106121f1577a184f03e93ff9f4daa797ed6e38ed64bf6a1f01000000000000000083816121e7576121e66138df565b5b0492506040810190505b6d04ee2d6d415b85acef8100000000831061222e576d04ee2d6d415b85acef81000000008381612224576122236138df565b5b0492506020810190505b662386f26fc10000831061225d57662386f26fc100008381612253576122526138df565b5b0492506010810190505b6305f5e1008310612286576305f5e100838161227c5761227b6138df565b5b0492506008810190505b61271083106122ab5761271083816122a1576122a06138df565b5b0492506004810190505b606483106122ce57606483816122c4576122c36138df565b5b0492506002810190505b600a83106122dd576001810190505b80915050919050565b6040518060a001604052806000815260200160608152602001600073ffffffffffffffffffffffffffffffffffffffff16815260200160008152602001600081525090565b6040518060400160405280600073ffffffffffffffffffffffffffffffffffffffff1681526020016000151581525090565b6000604051905090565b600080fd5b600080fd5b60007fffffffff0000000000000000000000000000000000000000000000000000000082169050919050565b6123a681612371565b81146123b157600080fd5b50565b6000813590506123c38161239d565b92915050565b6000602082840312156123df576123de612367565b5b60006123ed848285016123b4565b91505092915050565b60008115159050919050565b61240b816123f6565b82525050565b60006020820190506124266000830184612402565b92915050565b600081519050919050565b600082825260208201905092915050565b60005b8381101561246657808201518184015260208101905061244b565b60008484015250505050565b6000601f19601f8301169050919050565b600061248e8261242c565b6124988185612437565b93506124a8818560208601612448565b6124b181612472565b840191505092915050565b600060208201905081810360008301526124d68184612483565b905092915050565b6000819050919050565b6124f1816124de565b81146124fc57600080fd5b50565b60008135905061250e816124e8565b92915050565b60006020828403121561252a57612529612367565b5b6000612538848285016124ff565b91505092915050565b600073ffffffffffffffffffffffffffffffffffffffff82169050919050565b600061256c82612541565b9050919050565b61257c81612561565b82525050565b60006020820190506125976000830184612573565b92915050565b6125a681612561565b81146125b157600080fd5b50565b6000813590506125c38161259d565b92915050565b600080604083850312156125e0576125df612367565b5b60006125ee858286016125b4565b92505060206125ff858286016124ff565b9150509250929050565b612612816124de565b82525050565b600060a08201905061262d6000830188612609565b818103602083015261263f8187612483565b905061264e6040830186612573565b61265b6060830185612609565b6126686080830184612609565b9695505050505050565b60006020820190506126876000830184612609565b92915050565b6000806000606084860312156126a6576126a5612367565b5b60006126b4868287016125b4565b93505060206126c5868287016125b4565b92505060406126d6868287016124ff565b9150509250925092565b600080604083850312156126f7576126f6612367565b5b6000612705858286016124ff565b9250506020612716858286016124ff565b9150509250929050565b60006040820190506127356000830185612573565b6127426020830184612402565b9392505050565b600081519050919050565b600082825260208201905092915050565b6000819050602082019050919050565b61277e816124de565b82525050565b600082825260208201905092915050565b60006127a08261242c565b6127aa8185612784565b93506127ba818560208601612448565b6127c381612472565b840191505092915050565b6127d781612561565b82525050565b600060a0830160008301516127f56000860182612775565b506020830151848203602086015261280d8282612795565b915050604083015161282260408601826127ce565b5060608301516128356060860182612775565b5060808301516128486080860182612775565b508091505092915050565b600061285f83836127dd565b905092915050565b6000602082019050919050565b600061287f82612749565b6128898185612754565b93508360208202850161289b85612765565b8060005b858110156128d757848403895281516128b88582612853565b94506128c383612867565b925060208a0199505060018101905061289f565b50829750879550505050505092915050565b600060208201905081810360008301526129038184612874565b905092915050565b60006020828403121561292157612920612367565b5b600061292f848285016125b4565b91505092915050565b600081519050919050565b600082825260208201905092915050565b6000819050602082019050919050565b61296d816123f6565b82525050565b60408201600082015161298960008501826127ce565b50602082015161299c6020850182612964565b50505050565b60006129ae8383612973565b60408301905092915050565b6000602082019050919050565b60006129d282612938565b6129dc8185612943565b93506129e783612954565b8060005b83811015612a185781516129ff88826129a2565b9750612a0a836129ba565b9250506001810190506129eb565b5085935050505092915050565b60006020820190508181036000830152612a3f81846129c7565b905092915050565b612a50816123f6565b8114612a5b57600080fd5b50565b600081359050612a6d81612a47565b92915050565b60008060408385031215612a8a57612a89612367565b5b6000612a98858286016125b4565b9250506020612aa985828601612a5e565b9150509250929050565b600080fd5b600080fd5b7f4e487b7100000000000000000000000000000000000000000000000000000000600052604160045260246000fd5b612af582612472565b810181811067ffffffffffffffff82111715612b1457612b13612abd565b5b80604052505050565b6000612b2761235d565b9050612b338282612aec565b919050565b600067ffffffffffffffff821115612b5357612b52612abd565b5b612b5c82612472565b9050602081019050919050565b82818337600083830152505050565b6000612b8b612b8684612b38565b612b1d565b905082815260208101848484011115612ba757612ba6612ab8565b5b612bb2848285612b69565b509392505050565b600082601f830112612bcf57612bce612ab3565b5b8135612bdf848260208601612b78565b91505092915050565b60008060008060808587031215612c0257612c01612367565b5b6000612c10878288016125b4565b9450506020612c21878288016125b4565b9350506040612c32878288016124ff565b925050606085013567ffffffffffffffff811115612c5357612c5261236c565b5b612c5f87828801612bba565b91505092959194509250565b600067ffffffffffffffff821115612c8657612c85612abd565b5b612c8f82612472565b9050602081019050919050565b6000612caf612caa84612c6b565b612b1d565b905082815260208101848484011115612ccb57612cca612ab8565b5b612cd6848285612b69565b509392505050565b600082601f830112612cf357612cf2612ab3565b5b8135612d03848260208601612c9c565b91505092915050565b600060208284031215612d2257612d21612367565b5b600082013567ffffffffffffffff811115612d4057612d3f61236c565b5b612d4c84828501612cde565b91505092915050565b60008060408385031215612d6c57612d6b612367565b5b6000612d7a858286016125b4565b9250506020612d8b858286016125b4565b9150509250929050565b7f4e487b7100000000000000000000000000000000000000000000000000000000600052602260045260246000fd5b60006002820490506001821680612ddc57607f821691505b602082108103612def57612dee612d95565b5b50919050565b7f4552433732313a20617070726f76616c20746f2063757272656e74206f776e6560008201527f7200000000000000000000000000000000000000000000000000000000000000602082015250565b6000612e51602183612437565b9150612e5c82612df5565b604082019050919050565b60006020820190508181036000830152612e8081612e44565b9050919050565b7f4552433732313a20617070726f76652063616c6c6572206973206e6f7420746f60008201527f6b656e206f776e6572206f7220617070726f76656420666f7220616c6c000000602082015250565b6000612ee3603d83612437565b9150612eee82612e87565b604082019050919050565b60006020820190508181036000830152612f1281612ed6565b9050919050565b7f4e487b7100000000000000000000000000000000000000000000000000000000600052603260045260246000fd5b6000604082019050612f5d6000830185612609565b612f6a6020830184612402565b9392505050565b7f4e487b7100000000000000000000000000000000000000000000000000000000600052601160045260246000fd5b6000612fab826124de565b915060008203612fbe57612fbd612f71565b5b600182039050919050565b6000612fd4826124de565b91507fffffffffffffffffffffffffffffffffffffffffffffffffffffffffffffffff820361300657613005612f71565b5b600182019050919050565b7f4552433732313a2063616c6c6572206973206e6f7420746f6b656e206f776e6560008201527f72206f7220617070726f76656400000000000000000000000000000000000000602082015250565b600061306d602d83612437565b915061307882613011565b604082019050919050565b6000602082019050818103600083015261309c81613060565b9050919050565b60006130ae826124de565b91506130b9836124de565b92508282019050808211156130d1576130d0612f71565b5b92915050565b7f4552433732313a20696e76616c696420746f6b656e2049440000000000000000600082015250565b600061310d601883612437565b9150613118826130d7565b602082019050919050565b6000602082019050818103600083015261313c81613100565b9050919050565b7f4552433732313a2061646472657373207a65726f206973206e6f74206120766160008201527f6c6964206f776e65720000000000000000000000000000000000000000000000602082015250565b600061319f602983612437565b91506131aa82613143565b604082019050919050565b600060208201905081810360008301526131ce81613192565b9050919050565b7f43616e6e6f74207061737320616e20656d707479207465787400000000000000600082015250565b600061320b601983612437565b9150613216826131d5565b602082019050919050565b6000602082019050818103600083015261323a816131fe565b9050919050565b60008190508160005260206000209050919050565b60006020601f8301049050919050565b600082821b905092915050565b6000600883026132a37fffffffffffffffffffffffffffffffffffffffffffffffffffffffffffffffff82613266565b6132ad8683613266565b95508019841693508086168417925050509392505050565b6000819050919050565b60006132ea6132e56132e0846124de565b6132c5565b6124de565b9050919050565b6000819050919050565b613304836132cf565b613318613310826132f1565b848454613273565b825550505050565b600090565b61332d613320565b6133388184846132fb565b505050565b5b8181101561335c57613351600082613325565b60018101905061333e565b5050565b601f8211156133a15761337281613241565b61337b84613256565b8101602085101561338a578190505b61339e61339685613256565b83018261333d565b50505b505050565b600082821c905092915050565b60006133c4600019846008026133a6565b1980831691505092915050565b60006133dd83836133b3565b9150826002028217905092915050565b6133f68261242c565b67ffffffffffffffff81111561340f5761340e612abd565b5b6134198254612dc4565b613424828285613360565b600060209050601f8311600181146134575760008415613445578287015190505b61344f85826133d1565b8655506134b7565b601f19841661346586613241565b60005b8281101561348d57848901518255600182019150602085019450602081019050613468565b868310156134aa57848901516134a6601f8916826133b3565b8355505b6001600288020188555050505b505050505050565b6000819050919050565b60006134e46134df6134da846134bf565b6132c5565b6124de565b9050919050565b6134f4816134c9565b82525050565b600060808201905061350f6000830187612609565b81810360208301526135218186612483565b90506135306040830185612609565b61353d60608301846134eb565b95945050505050565b600081905092915050565b600061355c8261242c565b6135668185613546565b9350613576818560208601612448565b80840191505092915050565b600061358e8285613551565b915061359a8284613551565b91508190509392505050565b7f4552433732313a207472616e736665722066726f6d20696e636f72726563742060008201527f6f776e6572000000000000000000000000000000000000000000000000000000602082015250565b6000613602602583612437565b915061360d826135a6565b604082019050919050565b60006020820190508181036000830152613631816135f5565b9050919050565b7f4552433732313a207472616e7366657220746f20746865207a65726f2061646460008201527f7265737300000000000000000000000000000000000000000000000000000000602082015250565b6000613694602483612437565b915061369f82613638565b604082019050919050565b600060208201905081810360008301526136c381613687565b9050919050565b7f4552433732313a20617070726f766520746f2063616c6c657200000000000000600082015250565b6000613700601983612437565b915061370b826136ca565b602082019050919050565b6000602082019050818103600083015261372f816136f3565b9050919050565b7f4552433732313a207472616e7366657220746f206e6f6e20455243373231526560008201527f63656976657220696d706c656d656e7465720000000000000000000000000000602082015250565b6000613792603283612437565b915061379d82613736565b604082019050919050565b600060208201905081810360008301526137c181613785565b9050919050565b60006137d3826124de565b91506137de836124de565b92508282039050818111156137f6576137f5612f71565b5b92915050565b600081519050919050565b600082825260208201905092915050565b6000613823826137fc565b61382d8185613807565b935061383d818560208601612448565b61384681612472565b840191505092915050565b60006080820190506138666000830187612573565b6138736020830186612573565b6138806040830185612609565b81810360608301526138928184613818565b905095945050505050565b6000815190506138ac8161239d565b92915050565b6000602082840312156138c8576138c7612367565b5b60006138d68482850161389d565b91505092915050565b7f4e487b7100000000000000000000000000000000000000000000000000000000600052601260045260246000fdfea26469706673582212208c06995e3c5a6781c0e30cc67d66bf25f22c9be0529935d6fa27c80f39a9072364736f6c63430008110033",
  "linkReferences": {},
  "deployedLinkReferences": {}
}