{
  "_format": "hh-sol-artifact-1",
  "contractName": "dsns",
  "sourceName": "contracts/dsns.sol",
  "abi": [
    {
      "inputs": [],
      "stateMutability": "nonpayable",
      "type": "constructor"
    },
    {
      "anonymous": false,
      "inputs": [
        {
          "indexed": false,
          "internalType": "uint256",
          "name": "postId",
          "type": "uint256"
        },
        {
          "indexed": false,
          "internalType": "bool",
          "name": "isLiked",
          "type": "bool"
        }
      ],
      "name": "LikePost",
      "type": "event"
    },
    {
      "anonymous": false,
      "inputs": [
        {
          "indexed": false,
          "internalType": "uint256",
          "name": "id",
          "type": "uint256"
        },
        {
          "indexed": false,
          "internalType": "string",
          "name": "text",
          "type": "string"
        },
        {
          "indexed": true,
          "internalType": "address",
          "name": "from",
          "type": "address"
        },
        {
          "indexed": false,
          "internalType": "uint256",
          "name": "timestamp",
          "type": "uint256"
        },
        {
          "indexed": false,
          "internalType": "uint256",
          "name": "likeCount",
          "type": "uint256"
        }
      ],
      "name": "NewPosted",
      "type": "event"
    },
    {
      "inputs": [
        {
          "internalType": "uint256",
          "name": "_postId",
          "type": "uint256"
        }
      ],
      "name": "changeLikePost",
      "outputs": [],
      "stateMutability": "nonpayable",
      "type": "function"
    },
    {
      "inputs": [],
      "name": "getAllPosts",
      "outputs": [
        {
          "components": [
            {
              "internalType": "uint256",
              "name": "id",
              "type": "uint256"
            },
            {
              "internalType": "string",
              "name": "text",
              "type": "string"
            },
            {
              "internalType": "address",
              "name": "from",
              "type": "address"
            },
            {
              "internalType": "uint256",
              "name": "timestamp",
              "type": "uint256"
            },
            {
              "internalType": "uint256",
              "name": "likeCount",
              "type": "uint256"
            }
          ],
          "internalType": "struct dsns.Post[]",
          "name": "_posts",
          "type": "tuple[]"
        }
      ],
      "stateMutability": "view",
      "type": "function"
    },
    {
      "inputs": [
        {
          "internalType": "uint256",
          "name": "_postId",
          "type": "uint256"
        }
      ],
      "name": "getLikesPost",
      "outputs": [
        {
          "components": [
            {
              "internalType": "address",
              "name": "from",
              "type": "address"
            },
            {
              "internalType": "bool",
              "name": "isLiked",
              "type": "bool"
            }
          ],
          "internalType": "struct dsns.Like[]",
          "name": "_likes",
          "type": "tuple[]"
        }
      ],
      "stateMutability": "view",
      "type": "function"
    },
    {
      "inputs": [
        {
          "internalType": "uint256",
          "name": "",
          "type": "uint256"
        },
        {
          "internalType": "uint256",
          "name": "",
          "type": "uint256"
        }
      ],
      "name": "likes",
      "outputs": [
        {
          "internalType": "address",
          "name": "from",
          "type": "address"
        },
        {
          "internalType": "bool",
          "name": "isLiked",
          "type": "bool"
        }
      ],
      "stateMutability": "view",
      "type": "function"
    },
    {
      "inputs": [],
      "name": "postCount",
      "outputs": [
        {
          "internalType": "uint256",
          "name": "",
          "type": "uint256"
        }
      ],
      "stateMutability": "view",
      "type": "function"
    },
    {
      "inputs": [
        {
          "internalType": "uint256",
          "name": "",
          "type": "uint256"
        }
      ],
      "name": "posts",
      "outputs": [
        {
          "internalType": "uint256",
          "name": "id",
          "type": "uint256"
        },
        {
          "internalType": "string",
          "name": "text",
          "type": "string"
        },
        {
          "internalType": "address",
          "name": "from",
          "type": "address"
        },
        {
          "internalType": "uint256",
          "name": "timestamp",
          "type": "uint256"
        },
        {
          "internalType": "uint256",
          "name": "likeCount",
          "type": "uint256"
        }
      ],
      "stateMutability": "view",
      "type": "function"
    },
    {
      "inputs": [
        {
          "internalType": "string",
          "name": "_text",
          "type": "string"
        }
      ],
      "name": "uploadPost",
      "outputs": [],
      "stateMutability": "nonpayable",
      "type": "function"
    }
  ],
  "bytecode": "0x60806040523480156200001157600080fd5b506200005d6040518060400160405280601081526020017f636f6e74726163742073756363657373000000000000000000000000000000008152506200006360201b62000c4f1760201c565b620001e5565b62000103816040516024016200007a9190620001c1565b6040516020818303038152906040527f41304fac000000000000000000000000000000000000000000000000000000007bffffffffffffffffffffffffffffffffffffffffffffffffffffffff19166020820180517bffffffffffffffffffffffffffffffffffffffffffffffffffffffff83818316178352505050506200010660201b60201c565b50565b60006a636f6e736f6c652e6c6f679050600080835160208501845afa505050565b600081519050919050565b600082825260208201905092915050565b60005b838110156200016357808201518184015260208101905062000146565b60008484015250505050565b6000601f19601f8301169050919050565b60006200018d8262000127565b62000199818562000132565b9350620001ab81856020860162000143565b620001b6816200016f565b840191505092915050565b60006020820190508181036000830152620001dd818462000180565b905092915050565b61197480620001f56000396000f3fe608060405234801561001057600080fd5b506004361061007d5760003560e01c8063263457f21161005b578063263457f2146100f057806330561100146101215780639672eb6a1461013f578063bdd05adb1461016f5761007d565b80630b1e7f831461008257806312acb342146100b657806317906c2e146100d2575b600080fd5b61009c60048036038101906100979190610dca565b61018b565b6040516100ad959493929190610ed7565b60405180910390f35b6100d060048036038101906100cb9190610dca565b610269565b005b6100da610615565b6040516100e79190610f31565b60405180910390f35b61010a60048036038101906101059190610f4c565b61061b565b604051610118929190610fa7565b60405180910390f35b610129610685565b6040516101369190611170565b60405180910390f35b61015960048036038101906101549190610dca565b610850565b604051610166919061127f565b60405180910390f35b610189600480360381019061018491906113d6565b610ac8565b005b60016020528060005260406000206000915090508060000154908060010180546101b49061144e565b80601f01602080910402602001604051908101604052809291908181526020018280546101e09061144e565b801561022d5780601f106102025761010080835404028352916020019161022d565b820191906000526020600020905b81548152906001019060200180831161021057829003601f168201915b5050505050908060020160009054906101000a900473ffffffffffffffffffffffffffffffffffffffff16908060030154908060040154905085565b6000805b60026000848152602001908152602001600020805490508110156104d5573373ffffffffffffffffffffffffffffffffffffffff166002600085815260200190815260200160002082815481106102c7576102c661147f565b5b9060005260206000200160000160009054906101000a900473ffffffffffffffffffffffffffffffffffffffff1673ffffffffffffffffffffffffffffffffffffffff16036104c257600191506002600084815260200190815260200160002081815481106103395761033861147f565b5b9060005260206000200160000160149054906101000a900460ff161561040f5760006002600085815260200190815260200160002082815481106103805761037f61147f565b5b9060005260206000200160000160146101000a81548160ff0219169083151502179055507f2b5504beaa24a6c5eb8f61b11f59a4dd99f1ff07d2e753fe2e74cc0e59ff5d018360006040516103d69291906114ae565b60405180910390a160016000848152602001908152602001600020600401600081548092919061040590611506565b91905055506104c1565b60016002600085815260200190815260200160002082815481106104365761043561147f565b5b9060005260206000200160000160146101000a81548160ff0219169083151502179055507f2b5504beaa24a6c5eb8f61b11f59a4dd99f1ff07d2e753fe2e74cc0e59ff5d0183600160405161048c9291906114ae565b60405180910390a16001600084815260200190815260200160002060040160008154809291906104bb9061152f565b91905055505b5b80806104cd9061152f565b91505061026d565b5080610611576001600083815260200190815260200160002060040160008154809291906105029061152f565b91905055506002600083815260200190815260200160002060405180604001604052803373ffffffffffffffffffffffffffffffffffffffff168152602001600115158152509080600181540180825580915050600190039060005260206000200160009091909190915060008201518160000160006101000a81548173ffffffffffffffffffffffffffffffffffffffff021916908373ffffffffffffffffffffffffffffffffffffffff16021790555060208201518160000160146101000a81548160ff02191690831515021790555050507f2b5504beaa24a6c5eb8f61b11f59a4dd99f1ff07d2e753fe2e74cc0e59ff5d018260016040516106089291906114ae565b60405180910390a15b5050565b60005481565b6002602052816000526040600020818154811061063757600080fd5b90600052602060002001600091509150508060000160009054906101000a900473ffffffffffffffffffffffffffffffffffffffff16908060000160149054906101000a900460ff16905082565b606060005467ffffffffffffffff8111156106a3576106a26112ab565b5b6040519080825280602002602001820160405280156106dc57816020015b6106c9610d09565b8152602001906001900390816106c15790505b50905060005b815181101561084c57600160006001836106fc9190611577565b81526020019081526020016000206040518060a00160405290816000820154815260200160018201805461072f9061144e565b80601f016020809104026020016040519081016040528092919081815260200182805461075b9061144e565b80156107a85780601f1061077d576101008083540402835291602001916107a8565b820191906000526020600020905b81548152906001019060200180831161078b57829003601f168201915b505050505081526020016002820160009054906101000a900473ffffffffffffffffffffffffffffffffffffffff1673ffffffffffffffffffffffffffffffffffffffff1673ffffffffffffffffffffffffffffffffffffffff1681526020016003820154815260200160048201548152505082828151811061082e5761082d61147f565b5b602002602001018190525080806108449061152f565b9150506106e2565b5090565b60606000600260008481526020019081526020016000208054905067ffffffffffffffff811115610884576108836112ab565b5b6040519080825280602002602001820160405280156108bd57816020015b6108aa610d4e565b8152602001906001900390816108a25790505b5090506000805b6002600086815260200190815260200160002080549050811015610a12576002600086815260200190815260200160002081815481106109075761090661147f565b5b9060005260206000200160000160149054906101000a900460ff16156109ff5760026000868152602001908152602001600020818154811061094c5761094b61147f565b5b906000526020600020016040518060400160405290816000820160009054906101000a900473ffffffffffffffffffffffffffffffffffffffff1673ffffffffffffffffffffffffffffffffffffffff1673ffffffffffffffffffffffffffffffffffffffff1681526020016000820160149054906101000a900460ff1615151515815250508383815181106109e5576109e461147f565b5b602002602001018190525081806109fb9061152f565b9250505b8080610a0a9061152f565b9150506108c4565b508067ffffffffffffffff811115610a2d57610a2c6112ab565b5b604051908082528060200260200182016040528015610a6657816020015b610a53610d4e565b815260200190600190039081610a4b5790505b50925060005b81811015610ac057828181518110610a8757610a8661147f565b5b6020026020010151848281518110610aa257610aa161147f565b5b60200260200101819052508080610ab89061152f565b915050610a6c565b505050919050565b6000815111610b0c576040517f08c379a0000000000000000000000000000000000000000000000000000000008152600401610b03906115f7565b60405180910390fd5b600080815480929190610b1e9061152f565b91905055506040518060a0016040528060005481526020018281526020013373ffffffffffffffffffffffffffffffffffffffff16815260200142815260200160008152506001600080548152602001908152602001600020600082015181600001556020820151816001019081610b9691906117c3565b5060408201518160020160006101000a81548173ffffffffffffffffffffffffffffffffffffffff021916908373ffffffffffffffffffffffffffffffffffffffff16021790555060608201518160030155608082015181600401559050503373ffffffffffffffffffffffffffffffffffffffff167f6d7f72f9a0d79569f4a4f70e640e7de3583d788a22c5866e754d7e51a6aa18e560005483426000604051610c4494939291906118d0565b60405180910390a250565b610ce581604051602401610c63919061191c565b6040516020818303038152906040527f41304fac000000000000000000000000000000000000000000000000000000007bffffffffffffffffffffffffffffffffffffffffffffffffffffffff19166020820180517bffffffffffffffffffffffffffffffffffffffffffffffffffffffff8381831617835250505050610ce8565b50565b60006a636f6e736f6c652e6c6f679050600080835160208501845afa505050565b6040518060a001604052806000815260200160608152602001600073ffffffffffffffffffffffffffffffffffffffff16815260200160008152602001600081525090565b6040518060400160405280600073ffffffffffffffffffffffffffffffffffffffff1681526020016000151581525090565b6000604051905090565b600080fd5b600080fd5b6000819050919050565b610da781610d94565b8114610db257600080fd5b50565b600081359050610dc481610d9e565b92915050565b600060208284031215610de057610ddf610d8a565b5b6000610dee84828501610db5565b91505092915050565b610e0081610d94565b82525050565b600081519050919050565b600082825260208201905092915050565b60005b83811015610e40578082015181840152602081019050610e25565b60008484015250505050565b6000601f19601f8301169050919050565b6000610e6882610e06565b610e728185610e11565b9350610e82818560208601610e22565b610e8b81610e4c565b840191505092915050565b600073ffffffffffffffffffffffffffffffffffffffff82169050919050565b6000610ec182610e96565b9050919050565b610ed181610eb6565b82525050565b600060a082019050610eec6000830188610df7565b8181036020830152610efe8187610e5d565b9050610f0d6040830186610ec8565b610f1a6060830185610df7565b610f276080830184610df7565b9695505050505050565b6000602082019050610f466000830184610df7565b92915050565b60008060408385031215610f6357610f62610d8a565b5b6000610f7185828601610db5565b9250506020610f8285828601610db5565b9150509250929050565b60008115159050919050565b610fa181610f8c565b82525050565b6000604082019050610fbc6000830185610ec8565b610fc96020830184610f98565b9392505050565b600081519050919050565b600082825260208201905092915050565b6000819050602082019050919050565b61100581610d94565b82525050565b600082825260208201905092915050565b600061102782610e06565b611031818561100b565b9350611041818560208601610e22565b61104a81610e4c565b840191505092915050565b61105e81610eb6565b82525050565b600060a08301600083015161107c6000860182610ffc565b5060208301518482036020860152611094828261101c565b91505060408301516110a96040860182611055565b5060608301516110bc6060860182610ffc565b5060808301516110cf6080860182610ffc565b508091505092915050565b60006110e68383611064565b905092915050565b6000602082019050919050565b600061110682610fd0565b6111108185610fdb565b93508360208202850161112285610fec565b8060005b8581101561115e578484038952815161113f85826110da565b945061114a836110ee565b925060208a01995050600181019050611126565b50829750879550505050505092915050565b6000602082019050818103600083015261118a81846110fb565b905092915050565b600081519050919050565b600082825260208201905092915050565b6000819050602082019050919050565b6111c781610f8c565b82525050565b6040820160008201516111e36000850182611055565b5060208201516111f660208501826111be565b50505050565b600061120883836111cd565b60408301905092915050565b6000602082019050919050565b600061122c82611192565b611236818561119d565b9350611241836111ae565b8060005b8381101561127257815161125988826111fc565b975061126483611214565b925050600181019050611245565b5085935050505092915050565b600060208201905081810360008301526112998184611221565b905092915050565b600080fd5b600080fd5b7f4e487b7100000000000000000000000000000000000000000000000000000000600052604160045260246000fd5b6112e382610e4c565b810181811067ffffffffffffffff82111715611302576113016112ab565b5b80604052505050565b6000611315610d80565b905061132182826112da565b919050565b600067ffffffffffffffff821115611341576113406112ab565b5b61134a82610e4c565b9050602081019050919050565b82818337600083830152505050565b600061137961137484611326565b61130b565b905082815260208101848484011115611395576113946112a6565b5b6113a0848285611357565b509392505050565b600082601f8301126113bd576113bc6112a1565b5b81356113cd848260208601611366565b91505092915050565b6000602082840312156113ec576113eb610d8a565b5b600082013567ffffffffffffffff81111561140a57611409610d8f565b5b611416848285016113a8565b91505092915050565b7f4e487b7100000000000000000000000000000000000000000000000000000000600052602260045260246000fd5b6000600282049050600182168061146657607f821691505b6020821081036114795761147861141f565b5b50919050565b7f4e487b7100000000000000000000000000000000000000000000000000000000600052603260045260246000fd5b60006040820190506114c36000830185610df7565b6114d06020830184610f98565b9392505050565b7f4e487b7100000000000000000000000000000000000000000000000000000000600052601160045260246000fd5b600061151182610d94565b915060008203611524576115236114d7565b5b600182039050919050565b600061153a82610d94565b91507fffffffffffffffffffffffffffffffffffffffffffffffffffffffffffffffff820361156c5761156b6114d7565b5b600182019050919050565b600061158282610d94565b915061158d83610d94565b92508282019050808211156115a5576115a46114d7565b5b92915050565b7f43616e6e6f74207061737320616e20656d707479207465787400000000000000600082015250565b60006115e1601983610e11565b91506115ec826115ab565b602082019050919050565b60006020820190508181036000830152611610816115d4565b9050919050565b60008190508160005260206000209050919050565b60006020601f8301049050919050565b600082821b905092915050565b6000600883026116797fffffffffffffffffffffffffffffffffffffffffffffffffffffffffffffffff8261163c565b611683868361163c565b95508019841693508086168417925050509392505050565b6000819050919050565b60006116c06116bb6116b684610d94565b61169b565b610d94565b9050919050565b6000819050919050565b6116da836116a5565b6116ee6116e6826116c7565b848454611649565b825550505050565b600090565b6117036116f6565b61170e8184846116d1565b505050565b5b81811015611732576117276000826116fb565b600181019050611714565b5050565b601f8211156117775761174881611617565b6117518461162c565b81016020851015611760578190505b61177461176c8561162c565b830182611713565b50505b505050565b600082821c905092915050565b600061179a6000198460080261177c565b1980831691505092915050565b60006117b38383611789565b9150826002028217905092915050565b6117cc82610e06565b67ffffffffffffffff8111156117e5576117e46112ab565b5b6117ef825461144e565b6117fa828285611736565b600060209050601f83116001811461182d576000841561181b578287015190505b61182585826117a7565b86555061188d565b601f19841661183b86611617565b60005b828110156118635784890151825560018201915060208501945060208101905061183e565b86831015611880578489015161187c601f891682611789565b8355505b6001600288020188555050505b505050505050565b6000819050919050565b60006118ba6118b56118b084611895565b61169b565b610d94565b9050919050565b6118ca8161189f565b82525050565b60006080820190506118e56000830187610df7565b81810360208301526118f78186610e5d565b90506119066040830185610df7565b61191360608301846118c1565b95945050505050565b600060208201905081810360008301526119368184610e5d565b90509291505056fea264697066735822122087db90c28996c9fa6bd99a59235d73569cb1e50dc75de6200db8a5fb86e4875764736f6c63430008120033",
  "linkReferences": {},
  "deployedLinkReferences": {}
}