{
  "_format": "hh-sol-artifact-1",
  "contractName": "decentrasns",
  "sourceName": "contracts/decentrasns.sol",
  "abi": [
    {
      "inputs": [],
      "stateMutability": "nonpayable",
      "type": "constructor"
    },
    {
      "anonymous": false,
      "inputs": [
        {
          "indexed": true,
          "internalType": "address",
          "name": "owner",
          "type": "address"
        },
        {
          "indexed": true,
          "internalType": "address",
          "name": "approved",
          "type": "address"
        },
        {
          "indexed": true,
          "internalType": "uint256",
          "name": "tokenId",
          "type": "uint256"
        }
      ],
      "name": "Approval",
      "type": "event"
    },
    {
      "anonymous": false,
      "inputs": [
        {
          "indexed": true,
          "internalType": "address",
          "name": "owner",
          "type": "address"
        },
        {
          "indexed": true,
          "internalType": "address",
          "name": "operator",
          "type": "address"
        },
        {
          "indexed": false,
          "internalType": "bool",
          "name": "approved",
          "type": "bool"
        }
      ],
      "name": "ApprovalForAll",
      "type": "event"
    },
    {
      "anonymous": false,
      "inputs": [
        {
          "indexed": false,
          "internalType": "uint256",
          "name": "postId",
          "type": "uint256"
        },
        {
          "indexed": false,
          "internalType": "bool",
          "name": "isLiked",
          "type": "bool"
        }
      ],
      "name": "LikePost",
      "type": "event"
    },
    {
      "anonymous": false,
      "inputs": [
        {
          "indexed": false,
          "internalType": "uint256",
          "name": "id",
          "type": "uint256"
        },
        {
          "indexed": false,
          "internalType": "string",
          "name": "text",
          "type": "string"
        },
        {
          "indexed": true,
          "internalType": "address",
          "name": "from",
          "type": "address"
        },
        {
          "indexed": false,
          "internalType": "uint256",
          "name": "timestamp",
          "type": "uint256"
        },
        {
          "indexed": false,
          "internalType": "uint256",
          "name": "likeCount",
          "type": "uint256"
        }
      ],
      "name": "NewPosted",
      "type": "event"
    },
    {
      "anonymous": false,
      "inputs": [
        {
          "indexed": true,
          "internalType": "address",
          "name": "from",
          "type": "address"
        },
        {
          "indexed": true,
          "internalType": "address",
          "name": "to",
          "type": "address"
        },
        {
          "indexed": true,
          "internalType": "uint256",
          "name": "tokenId",
          "type": "uint256"
        }
      ],
      "name": "Transfer",
      "type": "event"
    },
    {
      "inputs": [
        {
          "internalType": "address",
          "name": "to",
          "type": "address"
        },
        {
          "internalType": "uint256",
          "name": "tokenId",
          "type": "uint256"
        }
      ],
      "name": "approve",
      "outputs": [],
      "stateMutability": "nonpayable",
      "type": "function"
    },
    {
      "inputs": [
        {
          "internalType": "address",
          "name": "owner",
          "type": "address"
        }
      ],
      "name": "balanceOf",
      "outputs": [
        {
          "internalType": "uint256",
          "name": "",
          "type": "uint256"
        }
      ],
      "stateMutability": "view",
      "type": "function"
    },
    {
      "inputs": [
        {
          "internalType": "uint256",
          "name": "_postId",
          "type": "uint256"
        }
      ],
      "name": "changeLikePost",
      "outputs": [],
      "stateMutability": "nonpayable",
      "type": "function"
    },
    {
      "inputs": [],
      "name": "getAllPosts",
      "outputs": [
        {
          "components": [
            {
              "internalType": "uint256",
              "name": "id",
              "type": "uint256"
            },
            {
              "internalType": "string",
              "name": "text",
              "type": "string"
            },
            {
              "internalType": "address",
              "name": "from",
              "type": "address"
            },
            {
              "internalType": "uint256",
              "name": "timestamp",
              "type": "uint256"
            },
            {
              "internalType": "uint256",
              "name": "likeCount",
              "type": "uint256"
            }
          ],
          "internalType": "struct decentrasns.Post[]",
          "name": "_posts",
          "type": "tuple[]"
        }
      ],
      "stateMutability": "view",
      "type": "function"
    },
    {
      "inputs": [
        {
          "internalType": "uint256",
          "name": "tokenId",
          "type": "uint256"
        }
      ],
      "name": "getApproved",
      "outputs": [
        {
          "internalType": "address",
          "name": "",
          "type": "address"
        }
      ],
      "stateMutability": "view",
      "type": "function"
    },
    {
      "inputs": [
        {
          "internalType": "uint256",
          "name": "_postId",
          "type": "uint256"
        }
      ],
      "name": "getLikesPost",
      "outputs": [
        {
          "components": [
            {
              "internalType": "address",
              "name": "from",
              "type": "address"
            },
            {
              "internalType": "bool",
              "name": "isLiked",
              "type": "bool"
            }
          ],
          "internalType": "struct decentrasns.Like[]",
          "name": "_likes",
          "type": "tuple[]"
        }
      ],
      "stateMutability": "view",
      "type": "function"
    },
    {
      "inputs": [
        {
          "internalType": "address",
          "name": "owner",
          "type": "address"
        },
        {
          "internalType": "address",
          "name": "operator",
          "type": "address"
        }
      ],
      "name": "isApprovedForAll",
      "outputs": [
        {
          "internalType": "bool",
          "name": "",
          "type": "bool"
        }
      ],
      "stateMutability": "view",
      "type": "function"
    },
    {
      "inputs": [
        {
          "internalType": "uint256",
          "name": "",
          "type": "uint256"
        },
        {
          "internalType": "uint256",
          "name": "",
          "type": "uint256"
        }
      ],
      "name": "likes",
      "outputs": [
        {
          "internalType": "address",
          "name": "from",
          "type": "address"
        },
        {
          "internalType": "bool",
          "name": "isLiked",
          "type": "bool"
        }
      ],
      "stateMutability": "view",
      "type": "function"
    },
    {
      "inputs": [],
      "name": "name",
      "outputs": [
        {
          "internalType": "string",
          "name": "",
          "type": "string"
        }
      ],
      "stateMutability": "view",
      "type": "function"
    },
    {
      "inputs": [
        {
          "internalType": "uint256",
          "name": "tokenId",
          "type": "uint256"
        }
      ],
      "name": "ownerOf",
      "outputs": [
        {
          "internalType": "address",
          "name": "",
          "type": "address"
        }
      ],
      "stateMutability": "view",
      "type": "function"
    },
    {
      "inputs": [],
      "name": "postCount",
      "outputs": [
        {
          "internalType": "uint256",
          "name": "",
          "type": "uint256"
        }
      ],
      "stateMutability": "view",
      "type": "function"
    },
    {
      "inputs": [
        {
          "internalType": "uint256",
          "name": "",
          "type": "uint256"
        }
      ],
      "name": "posts",
      "outputs": [
        {
          "internalType": "uint256",
          "name": "id",
          "type": "uint256"
        },
        {
          "internalType": "string",
          "name": "text",
          "type": "string"
        },
        {
          "internalType": "address",
          "name": "from",
          "type": "address"
        },
        {
          "internalType": "uint256",
          "name": "timestamp",
          "type": "uint256"
        },
        {
          "internalType": "uint256",
          "name": "likeCount",
          "type": "uint256"
        }
      ],
      "stateMutability": "view",
      "type": "function"
    },
    {
      "inputs": [
        {
          "internalType": "address",
          "name": "from",
          "type": "address"
        },
        {
          "internalType": "address",
          "name": "to",
          "type": "address"
        },
        {
          "internalType": "uint256",
          "name": "tokenId",
          "type": "uint256"
        }
      ],
      "name": "safeTransferFrom",
      "outputs": [],
      "stateMutability": "nonpayable",
      "type": "function"
    },
    {
      "inputs": [
        {
          "internalType": "address",
          "name": "from",
          "type": "address"
        },
        {
          "internalType": "address",
          "name": "to",
          "type": "address"
        },
        {
          "internalType": "uint256",
          "name": "tokenId",
          "type": "uint256"
        },
        {
          "internalType": "bytes",
          "name": "data",
          "type": "bytes"
        }
      ],
      "name": "safeTransferFrom",
      "outputs": [],
      "stateMutability": "nonpayable",
      "type": "function"
    },
    {
      "inputs": [
        {
          "internalType": "address",
          "name": "operator",
          "type": "address"
        },
        {
          "internalType": "bool",
          "name": "approved",
          "type": "bool"
        }
      ],
      "name": "setApprovalForAll",
      "outputs": [],
      "stateMutability": "nonpayable",
      "type": "function"
    },
    {
      "inputs": [
        {
          "internalType": "bytes4",
          "name": "interfaceId",
          "type": "bytes4"
        }
      ],
      "name": "supportsInterface",
      "outputs": [
        {
          "internalType": "bool",
          "name": "",
          "type": "bool"
        }
      ],
      "stateMutability": "view",
      "type": "function"
    },
    {
      "inputs": [],
      "name": "symbol",
      "outputs": [
        {
          "internalType": "string",
          "name": "",
          "type": "string"
        }
      ],
      "stateMutability": "view",
      "type": "function"
    },
    {
      "inputs": [
        {
          "internalType": "uint256",
          "name": "tokenId",
          "type": "uint256"
        }
      ],
      "name": "tokenURI",
      "outputs": [
        {
          "internalType": "string",
          "name": "",
          "type": "string"
        }
      ],
      "stateMutability": "view",
      "type": "function"
    },
    {
      "inputs": [
        {
          "internalType": "address",
          "name": "from",
          "type": "address"
        },
        {
          "internalType": "address",
          "name": "to",
          "type": "address"
        },
        {
          "internalType": "uint256",
          "name": "tokenId",
          "type": "uint256"
        }
      ],
      "name": "transferFrom",
      "outputs": [],
      "stateMutability": "nonpayable",
      "type": "function"
    },
    {
      "inputs": [
        {
          "internalType": "string",
          "name": "_text",
          "type": "string"
        }
      ],
      "name": "uploadPost",
      "outputs": [],
      "stateMutability": "nonpayable",
      "type": "function"
    }
  ],
  "bytecode": "0x60806040523480156200001157600080fd5b506040518060400160405280600b81526020017f646563656e747261736e730000000000000000000000000000000000000000008152506040518060400160405280600481526020017f44534e530000000000000000000000000000000000000000000000000000000081525081600090816200008f919062000324565b508060019081620000a1919062000324565b5050506200040b565b600081519050919050565b7f4e487b7100000000000000000000000000000000000000000000000000000000600052604160045260246000fd5b7f4e487b7100000000000000000000000000000000000000000000000000000000600052602260045260246000fd5b600060028204905060018216806200012c57607f821691505b602082108103620001425762000141620000e4565b5b50919050565b60008190508160005260206000209050919050565b60006020601f8301049050919050565b600082821b905092915050565b600060088302620001ac7fffffffffffffffffffffffffffffffffffffffffffffffffffffffffffffffff826200016d565b620001b886836200016d565b95508019841693508086168417925050509392505050565b6000819050919050565b6000819050919050565b600062000205620001ff620001f984620001d0565b620001da565b620001d0565b9050919050565b6000819050919050565b6200022183620001e4565b6200023962000230826200020c565b8484546200017a565b825550505050565b600090565b6200025062000241565b6200025d81848462000216565b505050565b5b8181101562000285576200027960008262000246565b60018101905062000263565b5050565b601f821115620002d4576200029e8162000148565b620002a9846200015d565b81016020851015620002b9578190505b620002d1620002c8856200015d565b83018262000262565b50505b505050565b600082821c905092915050565b6000620002f960001984600802620002d9565b1980831691505092915050565b6000620003148383620002e6565b9150826002028217905092915050565b6200032f82620000aa565b67ffffffffffffffff8111156200034b576200034a620000b5565b5b62000357825462000113565b6200036482828562000289565b600060209050601f8311600181146200039c576000841562000387578287015190505b62000393858262000306565b86555062000403565b601f198416620003ac8662000148565b60005b82811015620003d657848901518255600182019150602085019450602081019050620003af565b86831015620003f65784890151620003f2601f891682620002e6565b8355505b6001600288020188555050505b505050505050565b61393c806200041b6000396000f3fe608060405234801561001057600080fd5b506004361061012c5760003560e01c806342842e0e116100ad578063a22cb46511610071578063a22cb4651461036e578063b88d4fde1461038a578063bdd05adb146103a6578063c87b56dd146103c2578063e985e9c5146103f25761012c565b806342842e0e146102a45780636352211e146102c057806370a08231146102f057806395d89b41146103205780639672eb6a1461033e5761012c565b806312acb342116100f457806312acb342146101ff57806317906c2e1461021b57806323b872dd14610239578063263457f21461025557806330561100146102865761012c565b806301ffc9a71461013157806306fdde0314610161578063081812fc1461017f578063095ea7b3146101af5780630b1e7f83146101cb575b600080fd5b61014b600480360381019061014691906123c1565b610422565b6040516101589190612409565b60405180910390f35b610169610504565b60405161017691906124b4565b60405180910390f35b6101996004803603810190610194919061250c565b610596565b6040516101a6919061257a565b60405180910390f35b6101c960048036038101906101c491906125c1565b6105dc565b005b6101e560048036038101906101e0919061250c565b6106f3565b6040516101f6959493929190612610565b60405180910390f35b6102196004803603810190610214919061250c565b6107d1565b005b610223610b75565b604051610230919061266a565b60405180910390f35b610253600480360381019061024e9190612685565b610b7b565b005b61026f600480360381019061026a91906126d8565b610bdb565b60405161027d929190612718565b60405180910390f35b61028e610c45565b60405161029b91906128e1565b60405180910390f35b6102be60048036038101906102b99190612685565b610e10565b005b6102da60048036038101906102d5919061250c565b610e30565b6040516102e7919061257a565b60405180910390f35b61030a60048036038101906103059190612903565b610eb6565b604051610317919061266a565b60405180910390f35b610328610f6d565b60405161033591906124b4565b60405180910390f35b6103586004803603810190610353919061250c565b610fff565b6040516103659190612a1d565b60405180910390f35b61038860048036038101906103839190612a6b565b611277565b005b6103a4600480360381019061039f9190612be0565b61128d565b005b6103c060048036038101906103bb9190612d04565b6112ef565b005b6103dc60048036038101906103d7919061250c565b611478565b6040516103e991906124b4565b60405180910390f35b61040c60048036038101906104079190612d4d565b61158a565b6040516104199190612409565b60405180910390f35b60007f80ac58cd000000000000000000000000000000000000000000000000000000007bffffffffffffffffffffffffffffffffffffffffffffffffffffffff1916827bffffffffffffffffffffffffffffffffffffffffffffffffffffffff191614806104ed57507f5b5e139f000000000000000000000000000000000000000000000000000000007bffffffffffffffffffffffffffffffffffffffffffffffffffffffff1916827bffffffffffffffffffffffffffffffffffffffffffffffffffffffff1916145b806104fd57506104fc8261161e565b5b9050919050565b60606000805461051390612dbc565b80601f016020809104026020016040519081016040528092919081815260200182805461053f90612dbc565b801561058c5780601f106105615761010080835404028352916020019161058c565b820191906000526020600020905b81548152906001019060200180831161056f57829003601f168201915b5050505050905090565b60006105a182611688565b6004600083815260200190815260200160002060009054906101000a900473ffffffffffffffffffffffffffffffffffffffff169050919050565b60006105e782610e30565b90508073ffffffffffffffffffffffffffffffffffffffff168373ffffffffffffffffffffffffffffffffffffffff1603610657576040517f08c379a000000000000000000000000000000000000000000000000000000000815260040161064e90612e5f565b60405180910390fd5b8073ffffffffffffffffffffffffffffffffffffffff166106766116d3565b73ffffffffffffffffffffffffffffffffffffffff1614806106a557506106a48161069f6116d3565b61158a565b5b6106e4576040517f08c379a00000000000000000000000000000000000000000000000000000000081526004016106db90612ef1565b60405180910390fd5b6106ee83836116db565b505050565b600860205280600052604060002060009150905080600001549080600101805461071c90612dbc565b80601f016020809104026020016040519081016040528092919081815260200182805461074890612dbc565b80156107955780601f1061076a57610100808354040283529160200191610795565b820191906000526020600020905b81548152906001019060200180831161077857829003601f168201915b5050505050908060020160009054906101000a900473ffffffffffffffffffffffffffffffffffffffff16908060030154908060040154905085565b6000805b6009600084815260200190815260200160002080549050811015610a35573373ffffffffffffffffffffffffffffffffffffffff1660096000858152602001908152602001600020828154811061082f5761082e612f11565b5b9060005260206000200160000160009054906101000a900473ffffffffffffffffffffffffffffffffffffffff1673ffffffffffffffffffffffffffffffffffffffff1603610a2257600191506009600084815260200190815260200160002081815481106108a1576108a0612f11565b5b9060005260206000200160000160149054906101000a900460ff16156109775760006009600085815260200190815260200160002082815481106108e8576108e7612f11565b5b9060005260206000200160000160146101000a81548160ff0219169083151502179055507f2b5504beaa24a6c5eb8f61b11f59a4dd99f1ff07d2e753fe2e74cc0e59ff5d0183600060405161093e929190612f40565b60405180910390a160086000848152602001908152602001600020600401600081548092919061096d90612f98565b9190505550610a21565b600115156009600085815260200190815260200160002082815481106109a05761099f612f11565b5b9060005260206000200160000160149054906101000a905050507f2b5504beaa24a6c5eb8f61b11f59a4dd99f1ff07d2e753fe2e74cc0e59ff5d018360016040516109ec929190612f40565b60405180910390a1600860008481526020019081526020016000206004016000815480929190610a1b90612fc1565b91905055505b5b8080610a2d90612fc1565b9150506107d5565b5080610b7157600860008381526020019081526020016000206004016000815480929190610a6290612fc1565b91905055506009600083815260200190815260200160002060405180604001604052803373ffffffffffffffffffffffffffffffffffffffff168152602001600115158152509080600181540180825580915050600190039060005260206000200160009091909190915060008201518160000160006101000a81548173ffffffffffffffffffffffffffffffffffffffff021916908373ffffffffffffffffffffffffffffffffffffffff16021790555060208201518160000160146101000a81548160ff02191690831515021790555050507f2b5504beaa24a6c5eb8f61b11f59a4dd99f1ff07d2e753fe2e74cc0e59ff5d01826001604051610b68929190612f40565b60405180910390a15b5050565b60075481565b610b8c610b866116d3565b82611794565b610bcb576040517f08c379a0000000000000000000000000000000000000000000000000000000008152600401610bc29061307b565b60405180910390fd5b610bd6838383611829565b505050565b60096020528160005260406000208181548110610bf757600080fd5b90600052602060002001600091509150508060000160009054906101000a900473ffffffffffffffffffffffffffffffffffffffff16908060000160149054906101000a900460ff16905082565b606060075467ffffffffffffffff811115610c6357610c62612ab5565b5b604051908082528060200260200182016040528015610c9c57816020015b610c896122de565b815260200190600190039081610c815790505b50905060005b8151811015610e0c5760086000600183610cbc919061309b565b81526020019081526020016000206040518060a001604052908160008201548152602001600182018054610cef90612dbc565b80601f0160208091040260200160405190810160405280929190818152602001828054610d1b90612dbc565b8015610d685780601f10610d3d57610100808354040283529160200191610d68565b820191906000526020600020905b815481529060010190602001808311610d4b57829003601f168201915b505050505081526020016002820160009054906101000a900473ffffffffffffffffffffffffffffffffffffffff1673ffffffffffffffffffffffffffffffffffffffff1673ffffffffffffffffffffffffffffffffffffffff16815260200160038201548152602001600482015481525050828281518110610dee57610ded612f11565b5b60200260200101819052508080610e0490612fc1565b915050610ca2565b5090565b610e2b8383836040518060200160405280600081525061128d565b505050565b600080610e3c83611b22565b9050600073ffffffffffffffffffffffffffffffffffffffff168173ffffffffffffffffffffffffffffffffffffffff1603610ead576040517f08c379a0000000000000000000000000000000000000000000000000000000008152600401610ea49061311b565b60405180910390fd5b80915050919050565b60008073ffffffffffffffffffffffffffffffffffffffff168273ffffffffffffffffffffffffffffffffffffffff1603610f26576040517f08c379a0000000000000000000000000000000000000000000000000000000008152600401610f1d906131ad565b60405180910390fd5b600360008373ffffffffffffffffffffffffffffffffffffffff1673ffffffffffffffffffffffffffffffffffffffff168152602001908152602001600020549050919050565b606060018054610f7c90612dbc565b80601f0160208091040260200160405190810160405280929190818152602001828054610fa890612dbc565b8015610ff55780601f10610fca57610100808354040283529160200191610ff5565b820191906000526020600020905b815481529060010190602001808311610fd857829003601f168201915b5050505050905090565b60606000600960008481526020019081526020016000208054905067ffffffffffffffff81111561103357611032612ab5565b5b60405190808252806020026020018201604052801561106c57816020015b611059612323565b8152602001906001900390816110515790505b5090506000805b60096000868152602001908152602001600020805490508110156111c1576009600086815260200190815260200160002081815481106110b6576110b5612f11565b5b9060005260206000200160000160149054906101000a900460ff16156111ae576009600086815260200190815260200160002081815481106110fb576110fa612f11565b5b906000526020600020016040518060400160405290816000820160009054906101000a900473ffffffffffffffffffffffffffffffffffffffff1673ffffffffffffffffffffffffffffffffffffffff1673ffffffffffffffffffffffffffffffffffffffff1681526020016000820160149054906101000a900460ff16151515158152505083838151811061119457611193612f11565b5b602002602001018190525081806111aa90612fc1565b9250505b80806111b990612fc1565b915050611073565b508067ffffffffffffffff8111156111dc576111db612ab5565b5b60405190808252806020026020018201604052801561121557816020015b611202612323565b8152602001906001900390816111fa5790505b50925060005b8181101561126f5782818151811061123657611235612f11565b5b602002602001015184828151811061125157611250612f11565b5b6020026020010181905250808061126790612fc1565b91505061121b565b505050919050565b6112896112826116d3565b8383611b5f565b5050565b61129e6112986116d3565b83611794565b6112dd576040517f08c379a00000000000000000000000000000000000000000000000000000000081526004016112d49061307b565b60405180910390fd5b6112e984848484611ccb565b50505050565b6000815111611333576040517f08c379a000000000000000000000000000000000000000000000000000000000815260040161132a90613219565b60405180910390fd5b6007600081548092919061134690612fc1565b91905055506040518060a0016040528060075481526020018281526020013373ffffffffffffffffffffffffffffffffffffffff16815260200142815260200160008152506008600060075481526020019081526020016000206000820151816000015560208201518160010190816113bf91906133e5565b5060408201518160020160006101000a81548173ffffffffffffffffffffffffffffffffffffffff021916908373ffffffffffffffffffffffffffffffffffffffff16021790555060608201518160030155608082015181600401559050503373ffffffffffffffffffffffffffffffffffffffff167f6d7f72f9a0d79569f4a4f70e640e7de3583d788a22c5866e754d7e51a6aa18e56007548342600060405161146d94939291906134f2565b60405180910390a250565b606061148382611688565b60006006600084815260200190815260200160002080546114a390612dbc565b80601f01602080910402602001604051908101604052809291908181526020018280546114cf90612dbc565b801561151c5780601f106114f15761010080835404028352916020019161151c565b820191906000526020600020905b8154815290600101906020018083116114ff57829003601f168201915b50505050509050600061152d611d27565b90506000815103611542578192505050611585565b60008251111561157757808260405160200161155f92919061357a565b60405160208183030381529060405292505050611585565b61158084611d3e565b925050505b919050565b6000600560008473ffffffffffffffffffffffffffffffffffffffff1673ffffffffffffffffffffffffffffffffffffffff16815260200190815260200160002060008373ffffffffffffffffffffffffffffffffffffffff1673ffffffffffffffffffffffffffffffffffffffff16815260200190815260200160002060009054906101000a900460ff16905092915050565b60007f01ffc9a7000000000000000000000000000000000000000000000000000000007bffffffffffffffffffffffffffffffffffffffffffffffffffffffff1916827bffffffffffffffffffffffffffffffffffffffffffffffffffffffff1916149050919050565b61169181611da6565b6116d0576040517f08c379a00000000000000000000000000000000000000000000000000000000081526004016116c79061311b565b60405180910390fd5b50565b600033905090565b816004600083815260200190815260200160002060006101000a81548173ffffffffffffffffffffffffffffffffffffffff021916908373ffffffffffffffffffffffffffffffffffffffff160217905550808273ffffffffffffffffffffffffffffffffffffffff1661174e83610e30565b73ffffffffffffffffffffffffffffffffffffffff167f8c5be1e5ebec7d5bd14f71427d1e84f3dd0314c0f7b2291e5b200ac8c7c3b92560405160405180910390a45050565b6000806117a083610e30565b90508073ffffffffffffffffffffffffffffffffffffffff168473ffffffffffffffffffffffffffffffffffffffff1614806117e257506117e1818561158a565b5b8061182057508373ffffffffffffffffffffffffffffffffffffffff1661180884610596565b73ffffffffffffffffffffffffffffffffffffffff16145b91505092915050565b8273ffffffffffffffffffffffffffffffffffffffff1661184982610e30565b73ffffffffffffffffffffffffffffffffffffffff161461189f576040517f08c379a000000000000000000000000000000000000000000000000000000000815260040161189690613610565b60405180910390fd5b600073ffffffffffffffffffffffffffffffffffffffff168273ffffffffffffffffffffffffffffffffffffffff160361190e576040517f08c379a0000000000000000000000000000000000000000000000000000000008152600401611905906136a2565b60405180910390fd5b61191b8383836001611de7565b8273ffffffffffffffffffffffffffffffffffffffff1661193b82610e30565b73ffffffffffffffffffffffffffffffffffffffff1614611991576040517f08c379a000000000000000000000000000000000000000000000000000000000815260040161198890613610565b60405180910390fd5b6004600082815260200190815260200160002060006101000a81549073ffffffffffffffffffffffffffffffffffffffff02191690556001600360008573ffffffffffffffffffffffffffffffffffffffff1673ffffffffffffffffffffffffffffffffffffffff168152602001908152602001600020600082825403925050819055506001600360008473ffffffffffffffffffffffffffffffffffffffff1673ffffffffffffffffffffffffffffffffffffffff16815260200190815260200160002060008282540192505081905550816002600083815260200190815260200160002060006101000a81548173ffffffffffffffffffffffffffffffffffffffff021916908373ffffffffffffffffffffffffffffffffffffffff160217905550808273ffffffffffffffffffffffffffffffffffffffff168473ffffffffffffffffffffffffffffffffffffffff167fddf252ad1be2c89b69c2b068fc378daa952ba7f163c4a11628f55a4df523b3ef60405160405180910390a4611b1d8383836001611f0d565b505050565b60006002600083815260200190815260200160002060009054906101000a900473ffffffffffffffffffffffffffffffffffffffff169050919050565b8173ffffffffffffffffffffffffffffffffffffffff168373ffffffffffffffffffffffffffffffffffffffff1603611bcd576040517f08c379a0000000000000000000000000000000000000000000000000000000008152600401611bc49061370e565b60405180910390fd5b80600560008573ffffffffffffffffffffffffffffffffffffffff1673ffffffffffffffffffffffffffffffffffffffff16815260200190815260200160002060008473ffffffffffffffffffffffffffffffffffffffff1673ffffffffffffffffffffffffffffffffffffffff16815260200190815260200160002060006101000a81548160ff0219169083151502179055508173ffffffffffffffffffffffffffffffffffffffff168373ffffffffffffffffffffffffffffffffffffffff167f17307eab39ab6107e8899845ad3d59bd9653f200f220920489ca2b5937696c3183604051611cbe9190612409565b60405180910390a3505050565b611cd6848484611829565b611ce284848484611f13565b611d21576040517f08c379a0000000000000000000000000000000000000000000000000000000008152600401611d18906137a0565b60405180910390fd5b50505050565b606060405180602001604052806000815250905090565b6060611d4982611688565b6000611d53611d27565b90506000815111611d735760405180602001604052806000815250611d9e565b80611d7d8461209a565b604051602001611d8e92919061357a565b6040516020818303038152906040525b915050919050565b60008073ffffffffffffffffffffffffffffffffffffffff16611dc883611b22565b73ffffffffffffffffffffffffffffffffffffffff1614159050919050565b6001811115611f0757600073ffffffffffffffffffffffffffffffffffffffff168473ffffffffffffffffffffffffffffffffffffffff1614611e7b5780600360008673ffffffffffffffffffffffffffffffffffffffff1673ffffffffffffffffffffffffffffffffffffffff1681526020019081526020016000206000828254611e7391906137c0565b925050819055505b600073ffffffffffffffffffffffffffffffffffffffff168373ffffffffffffffffffffffffffffffffffffffff1614611f065780600360008573ffffffffffffffffffffffffffffffffffffffff1673ffffffffffffffffffffffffffffffffffffffff1681526020019081526020016000206000828254611efe919061309b565b925050819055505b5b50505050565b50505050565b6000611f348473ffffffffffffffffffffffffffffffffffffffff16612168565b1561208d578373ffffffffffffffffffffffffffffffffffffffff1663150b7a02611f5d6116d3565b8786866040518563ffffffff1660e01b8152600401611f7f9493929190613849565b6020604051808303816000875af1925050508015611fbb57506040513d601f19601f82011682018060405250810190611fb891906138aa565b60015b61203d573d8060008114611feb576040519150601f19603f3d011682016040523d82523d6000602084013e611ff0565b606091505b506000815103612035576040517f08c379a000000000000000000000000000000000000000000000000000000000815260040161202c906137a0565b60405180910390fd5b805181602001fd5b63150b7a0260e01b7bffffffffffffffffffffffffffffffffffffffffffffffffffffffff1916817bffffffffffffffffffffffffffffffffffffffffffffffffffffffff191614915050612092565b600190505b949350505050565b6060600060016120a98461218b565b01905060008167ffffffffffffffff8111156120c8576120c7612ab5565b5b6040519080825280601f01601f1916602001820160405280156120fa5781602001600182028036833780820191505090505b509050600082602001820190505b60011561215d578080600190039150507f3031323334353637383961626364656600000000000000000000000000000000600a86061a8153600a8581612151576121506138d7565b5b04945060008503612108575b819350505050919050565b6000808273ffffffffffffffffffffffffffffffffffffffff163b119050919050565b600080600090507a184f03e93ff9f4daa797ed6e38ed64bf6a1f01000000000000000083106121e9577a184f03e93ff9f4daa797ed6e38ed64bf6a1f01000000000000000083816121df576121de6138d7565b5b0492506040810190505b6d04ee2d6d415b85acef81000000008310612226576d04ee2d6d415b85acef8100000000838161221c5761221b6138d7565b5b0492506020810190505b662386f26fc10000831061225557662386f26fc10000838161224b5761224a6138d7565b5b0492506010810190505b6305f5e100831061227e576305f5e1008381612274576122736138d7565b5b0492506008810190505b61271083106122a3576127108381612299576122986138d7565b5b0492506004810190505b606483106122c657606483816122bc576122bb6138d7565b5b0492506002810190505b600a83106122d5576001810190505b80915050919050565b6040518060a001604052806000815260200160608152602001600073ffffffffffffffffffffffffffffffffffffffff16815260200160008152602001600081525090565b6040518060400160405280600073ffffffffffffffffffffffffffffffffffffffff1681526020016000151581525090565b6000604051905090565b600080fd5b600080fd5b60007fffffffff0000000000000000000000000000000000000000000000000000000082169050919050565b61239e81612369565b81146123a957600080fd5b50565b6000813590506123bb81612395565b92915050565b6000602082840312156123d7576123d661235f565b5b60006123e5848285016123ac565b91505092915050565b60008115159050919050565b612403816123ee565b82525050565b600060208201905061241e60008301846123fa565b92915050565b600081519050919050565b600082825260208201905092915050565b60005b8381101561245e578082015181840152602081019050612443565b60008484015250505050565b6000601f19601f8301169050919050565b600061248682612424565b612490818561242f565b93506124a0818560208601612440565b6124a98161246a565b840191505092915050565b600060208201905081810360008301526124ce818461247b565b905092915050565b6000819050919050565b6124e9816124d6565b81146124f457600080fd5b50565b600081359050612506816124e0565b92915050565b6000602082840312156125225761252161235f565b5b6000612530848285016124f7565b91505092915050565b600073ffffffffffffffffffffffffffffffffffffffff82169050919050565b600061256482612539565b9050919050565b61257481612559565b82525050565b600060208201905061258f600083018461256b565b92915050565b61259e81612559565b81146125a957600080fd5b50565b6000813590506125bb81612595565b92915050565b600080604083850312156125d8576125d761235f565b5b60006125e6858286016125ac565b92505060206125f7858286016124f7565b9150509250929050565b61260a816124d6565b82525050565b600060a0820190506126256000830188612601565b8181036020830152612637818761247b565b9050612646604083018661256b565b6126536060830185612601565b6126606080830184612601565b9695505050505050565b600060208201905061267f6000830184612601565b92915050565b60008060006060848603121561269e5761269d61235f565b5b60006126ac868287016125ac565b93505060206126bd868287016125ac565b92505060406126ce868287016124f7565b9150509250925092565b600080604083850312156126ef576126ee61235f565b5b60006126fd858286016124f7565b925050602061270e858286016124f7565b9150509250929050565b600060408201905061272d600083018561256b565b61273a60208301846123fa565b9392505050565b600081519050919050565b600082825260208201905092915050565b6000819050602082019050919050565b612776816124d6565b82525050565b600082825260208201905092915050565b600061279882612424565b6127a2818561277c565b93506127b2818560208601612440565b6127bb8161246a565b840191505092915050565b6127cf81612559565b82525050565b600060a0830160008301516127ed600086018261276d565b5060208301518482036020860152612805828261278d565b915050604083015161281a60408601826127c6565b50606083015161282d606086018261276d565b506080830151612840608086018261276d565b508091505092915050565b600061285783836127d5565b905092915050565b6000602082019050919050565b600061287782612741565b612881818561274c565b9350836020820285016128938561275d565b8060005b858110156128cf57848403895281516128b0858261284b565b94506128bb8361285f565b925060208a01995050600181019050612897565b50829750879550505050505092915050565b600060208201905081810360008301526128fb818461286c565b905092915050565b6000602082840312156129195761291861235f565b5b6000612927848285016125ac565b91505092915050565b600081519050919050565b600082825260208201905092915050565b6000819050602082019050919050565b612965816123ee565b82525050565b60408201600082015161298160008501826127c6565b506020820151612994602085018261295c565b50505050565b60006129a6838361296b565b60408301905092915050565b6000602082019050919050565b60006129ca82612930565b6129d4818561293b565b93506129df8361294c565b8060005b83811015612a105781516129f7888261299a565b9750612a02836129b2565b9250506001810190506129e3565b5085935050505092915050565b60006020820190508181036000830152612a3781846129bf565b905092915050565b612a48816123ee565b8114612a5357600080fd5b50565b600081359050612a6581612a3f565b92915050565b60008060408385031215612a8257612a8161235f565b5b6000612a90858286016125ac565b9250506020612aa185828601612a56565b9150509250929050565b600080fd5b600080fd5b7f4e487b7100000000000000000000000000000000000000000000000000000000600052604160045260246000fd5b612aed8261246a565b810181811067ffffffffffffffff82111715612b0c57612b0b612ab5565b5b80604052505050565b6000612b1f612355565b9050612b2b8282612ae4565b919050565b600067ffffffffffffffff821115612b4b57612b4a612ab5565b5b612b548261246a565b9050602081019050919050565b82818337600083830152505050565b6000612b83612b7e84612b30565b612b15565b905082815260208101848484011115612b9f57612b9e612ab0565b5b612baa848285612b61565b509392505050565b600082601f830112612bc757612bc6612aab565b5b8135612bd7848260208601612b70565b91505092915050565b60008060008060808587031215612bfa57612bf961235f565b5b6000612c08878288016125ac565b9450506020612c19878288016125ac565b9350506040612c2a878288016124f7565b925050606085013567ffffffffffffffff811115612c4b57612c4a612364565b5b612c5787828801612bb2565b91505092959194509250565b600067ffffffffffffffff821115612c7e57612c7d612ab5565b5b612c878261246a565b9050602081019050919050565b6000612ca7612ca284612c63565b612b15565b905082815260208101848484011115612cc357612cc2612ab0565b5b612cce848285612b61565b509392505050565b600082601f830112612ceb57612cea612aab565b5b8135612cfb848260208601612c94565b91505092915050565b600060208284031215612d1a57612d1961235f565b5b600082013567ffffffffffffffff811115612d3857612d37612364565b5b612d4484828501612cd6565b91505092915050565b60008060408385031215612d6457612d6361235f565b5b6000612d72858286016125ac565b9250506020612d83858286016125ac565b9150509250929050565b7f4e487b7100000000000000000000000000000000000000000000000000000000600052602260045260246000fd5b60006002820490506001821680612dd457607f821691505b602082108103612de757612de6612d8d565b5b50919050565b7f4552433732313a20617070726f76616c20746f2063757272656e74206f776e6560008201527f7200000000000000000000000000000000000000000000000000000000000000602082015250565b6000612e4960218361242f565b9150612e5482612ded565b604082019050919050565b60006020820190508181036000830152612e7881612e3c565b9050919050565b7f4552433732313a20617070726f76652063616c6c6572206973206e6f7420746f60008201527f6b656e206f776e6572206f7220617070726f76656420666f7220616c6c000000602082015250565b6000612edb603d8361242f565b9150612ee682612e7f565b604082019050919050565b60006020820190508181036000830152612f0a81612ece565b9050919050565b7f4e487b7100000000000000000000000000000000000000000000000000000000600052603260045260246000fd5b6000604082019050612f556000830185612601565b612f6260208301846123fa565b9392505050565b7f4e487b7100000000000000000000000000000000000000000000000000000000600052601160045260246000fd5b6000612fa3826124d6565b915060008203612fb657612fb5612f69565b5b600182039050919050565b6000612fcc826124d6565b91507fffffffffffffffffffffffffffffffffffffffffffffffffffffffffffffffff8203612ffe57612ffd612f69565b5b600182019050919050565b7f4552433732313a2063616c6c6572206973206e6f7420746f6b656e206f776e6560008201527f72206f7220617070726f76656400000000000000000000000000000000000000602082015250565b6000613065602d8361242f565b915061307082613009565b604082019050919050565b6000602082019050818103600083015261309481613058565b9050919050565b60006130a6826124d6565b91506130b1836124d6565b92508282019050808211156130c9576130c8612f69565b5b92915050565b7f4552433732313a20696e76616c696420746f6b656e2049440000000000000000600082015250565b600061310560188361242f565b9150613110826130cf565b602082019050919050565b60006020820190508181036000830152613134816130f8565b9050919050565b7f4552433732313a2061646472657373207a65726f206973206e6f74206120766160008201527f6c6964206f776e65720000000000000000000000000000000000000000000000602082015250565b600061319760298361242f565b91506131a28261313b565b604082019050919050565b600060208201905081810360008301526131c68161318a565b9050919050565b7f43616e6e6f74207061737320616e20656d707479207465787400000000000000600082015250565b600061320360198361242f565b915061320e826131cd565b602082019050919050565b60006020820190508181036000830152613232816131f6565b9050919050565b60008190508160005260206000209050919050565b60006020601f8301049050919050565b600082821b905092915050565b60006008830261329b7fffffffffffffffffffffffffffffffffffffffffffffffffffffffffffffffff8261325e565b6132a5868361325e565b95508019841693508086168417925050509392505050565b6000819050919050565b60006132e26132dd6132d8846124d6565b6132bd565b6124d6565b9050919050565b6000819050919050565b6132fc836132c7565b613310613308826132e9565b84845461326b565b825550505050565b600090565b613325613318565b6133308184846132f3565b505050565b5b818110156133545761334960008261331d565b600181019050613336565b5050565b601f8211156133995761336a81613239565b6133738461324e565b81016020851015613382578190505b61339661338e8561324e565b830182613335565b50505b505050565b600082821c905092915050565b60006133bc6000198460080261339e565b1980831691505092915050565b60006133d583836133ab565b9150826002028217905092915050565b6133ee82612424565b67ffffffffffffffff81111561340757613406612ab5565b5b6134118254612dbc565b61341c828285613358565b600060209050601f83116001811461344f576000841561343d578287015190505b61344785826133c9565b8655506134af565b601f19841661345d86613239565b60005b8281101561348557848901518255600182019150602085019450602081019050613460565b868310156134a2578489015161349e601f8916826133ab565b8355505b6001600288020188555050505b505050505050565b6000819050919050565b60006134dc6134d76134d2846134b7565b6132bd565b6124d6565b9050919050565b6134ec816134c1565b82525050565b60006080820190506135076000830187612601565b8181036020830152613519818661247b565b90506135286040830185612601565b61353560608301846134e3565b95945050505050565b600081905092915050565b600061355482612424565b61355e818561353e565b935061356e818560208601612440565b80840191505092915050565b60006135868285613549565b91506135928284613549565b91508190509392505050565b7f4552433732313a207472616e736665722066726f6d20696e636f72726563742060008201527f6f776e6572000000000000000000000000000000000000000000000000000000602082015250565b60006135fa60258361242f565b91506136058261359e565b604082019050919050565b60006020820190508181036000830152613629816135ed565b9050919050565b7f4552433732313a207472616e7366657220746f20746865207a65726f2061646460008201527f7265737300000000000000000000000000000000000000000000000000000000602082015250565b600061368c60248361242f565b915061369782613630565b604082019050919050565b600060208201905081810360008301526136bb8161367f565b9050919050565b7f4552433732313a20617070726f766520746f2063616c6c657200000000000000600082015250565b60006136f860198361242f565b9150613703826136c2565b602082019050919050565b60006020820190508181036000830152613727816136eb565b9050919050565b7f4552433732313a207472616e7366657220746f206e6f6e20455243373231526560008201527f63656976657220696d706c656d656e7465720000000000000000000000000000602082015250565b600061378a60328361242f565b91506137958261372e565b604082019050919050565b600060208201905081810360008301526137b98161377d565b9050919050565b60006137cb826124d6565b91506137d6836124d6565b92508282039050818111156137ee576137ed612f69565b5b92915050565b600081519050919050565b600082825260208201905092915050565b600061381b826137f4565b61382581856137ff565b9350613835818560208601612440565b61383e8161246a565b840191505092915050565b600060808201905061385e600083018761256b565b61386b602083018661256b565b6138786040830185612601565b818103606083015261388a8184613810565b905095945050505050565b6000815190506138a481612395565b92915050565b6000602082840312156138c0576138bf61235f565b5b60006138ce84828501613895565b91505092915050565b7f4e487b7100000000000000000000000000000000000000000000000000000000600052601260045260246000fdfea2646970667358221220456d756bf26b8c3e69237da1e575e440ffa5d5a0fdc9047ba042c8236b2c026c64736f6c63430008110033",
  "linkReferences": {},
  "deployedLinkReferences": {}
}